{
  "_format": "hh-sol-artifact-1",
  "contractName": "NFT",
  "sourceName": "contracts/NFT.sol",
  "abi": [
    {
      "inputs": [],
      "stateMutability": "nonpayable",
      "type": "constructor"
    },
    {
      "anonymous": false,
      "inputs": [
        {
          "indexed": true,
          "internalType": "address",
          "name": "owner",
          "type": "address"
        },
        {
          "indexed": true,
          "internalType": "address",
          "name": "approved",
          "type": "address"
        },
        {
          "indexed": true,
          "internalType": "uint256",
          "name": "tokenId",
          "type": "uint256"
        }
      ],
      "name": "Approval",
      "type": "event"
    },
    {
      "anonymous": false,
      "inputs": [
        {
          "indexed": true,
          "internalType": "address",
          "name": "owner",
          "type": "address"
        },
        {
          "indexed": true,
          "internalType": "address",
          "name": "operator",
          "type": "address"
        },
        {
          "indexed": false,
          "internalType": "bool",
          "name": "approved",
          "type": "bool"
        }
      ],
      "name": "ApprovalForAll",
      "type": "event"
    },
    {
      "anonymous": false,
      "inputs": [
        {
          "indexed": false,
          "internalType": "uint256",
          "name": "_fromTokenId",
          "type": "uint256"
        },
        {
          "indexed": false,
          "internalType": "uint256",
          "name": "_toTokenId",
          "type": "uint256"
        }
      ],
      "name": "BatchMetadataUpdate",
      "type": "event"
    },
    {
      "anonymous": false,
      "inputs": [
        {
          "indexed": false,
          "internalType": "uint256",
          "name": "_tokenId",
          "type": "uint256"
        }
      ],
      "name": "MetadataUpdate",
      "type": "event"
    },
    {
      "anonymous": false,
      "inputs": [
        {
          "indexed": false,
          "internalType": "address",
          "name": "sender",
          "type": "address"
        },
        {
          "indexed": false,
          "internalType": "uint256",
          "name": "tokenId",
          "type": "uint256"
        }
      ],
      "name": "NewNFTMinted",
      "type": "event"
    },
    {
      "anonymous": false,
      "inputs": [
        {
          "indexed": true,
          "internalType": "address",
          "name": "previousOwner",
          "type": "address"
        },
        {
          "indexed": true,
          "internalType": "address",
          "name": "newOwner",
          "type": "address"
        }
      ],
      "name": "OwnershipTransferred",
      "type": "event"
    },
    {
      "anonymous": false,
      "inputs": [
        {
          "indexed": true,
          "internalType": "address",
          "name": "from",
          "type": "address"
        },
        {
          "indexed": true,
          "internalType": "address",
          "name": "to",
          "type": "address"
        },
        {
          "indexed": true,
          "internalType": "uint256",
          "name": "tokenId",
          "type": "uint256"
        }
      ],
      "name": "Transfer",
      "type": "event"
    },
    {
      "inputs": [
        {
          "internalType": "address",
          "name": "accessor",
          "type": "address"
        }
      ],
      "name": "addAccessors",
      "outputs": [],
      "stateMutability": "nonpayable",
      "type": "function"
    },
    {
      "inputs": [
        {
          "internalType": "address",
          "name": "to",
          "type": "address"
        },
        {
          "internalType": "uint256",
          "name": "tokenId",
          "type": "uint256"
        }
      ],
      "name": "approve",
      "outputs": [],
      "stateMutability": "nonpayable",
      "type": "function"
    },
    {
      "inputs": [
        {
          "internalType": "address",
          "name": "owner",
          "type": "address"
        }
      ],
      "name": "balanceOf",
      "outputs": [
        {
          "internalType": "uint256",
          "name": "",
          "type": "uint256"
        }
      ],
      "stateMutability": "view",
      "type": "function"
    },
    {
      "inputs": [
        {
          "internalType": "uint256",
          "name": "tokenId",
          "type": "uint256"
        }
      ],
      "name": "getApproved",
      "outputs": [
        {
          "internalType": "address",
          "name": "",
          "type": "address"
        }
      ],
      "stateMutability": "view",
      "type": "function"
    },
    {
      "inputs": [],
      "name": "getTokensByUser",
      "outputs": [
        {
          "internalType": "uint256[]",
          "name": "",
          "type": "uint256[]"
        }
      ],
      "stateMutability": "view",
      "type": "function"
    },
    {
      "inputs": [],
      "name": "hasMintedNFT",
      "outputs": [
        {
          "internalType": "bool",
          "name": "",
          "type": "bool"
        }
      ],
      "stateMutability": "view",
      "type": "function"
    },
    {
      "inputs": [
        {
          "internalType": "address",
          "name": "userId",
          "type": "address"
        }
      ],
      "name": "isAllowed",
      "outputs": [
        {
          "internalType": "bool",
          "name": "",
          "type": "bool"
        }
      ],
      "stateMutability": "view",
      "type": "function"
    },
    {
      "inputs": [
        {
          "internalType": "address",
          "name": "owner",
          "type": "address"
        },
        {
          "internalType": "address",
          "name": "operator",
          "type": "address"
        }
      ],
      "name": "isApprovedForAll",
      "outputs": [
        {
          "internalType": "bool",
          "name": "",
          "type": "bool"
        }
      ],
      "stateMutability": "view",
      "type": "function"
    },
    {
      "inputs": [
        {
          "internalType": "address",
          "name": "recipient",
          "type": "address"
        },
        {
          "internalType": "string",
          "name": "tokenURI",
          "type": "string"
        }
      ],
      "name": "mintNFT",
      "outputs": [
        {
          "internalType": "uint256",
          "name": "",
          "type": "uint256"
        }
      ],
      "stateMutability": "nonpayable",
      "type": "function"
    },
    {
      "inputs": [],
      "name": "name",
      "outputs": [
        {
          "internalType": "string",
          "name": "",
          "type": "string"
        }
      ],
      "stateMutability": "view",
      "type": "function"
    },
    {
      "inputs": [],
      "name": "owner",
      "outputs": [
        {
          "internalType": "address",
          "name": "",
          "type": "address"
        }
      ],
      "stateMutability": "view",
      "type": "function"
    },
    {
      "inputs": [
        {
          "internalType": "uint256",
          "name": "tokenId",
          "type": "uint256"
        }
      ],
      "name": "ownerOf",
      "outputs": [
        {
          "internalType": "address",
          "name": "",
          "type": "address"
        }
      ],
      "stateMutability": "view",
      "type": "function"
    },
    {
      "inputs": [
        {
          "internalType": "address",
          "name": "accessor",
          "type": "address"
        }
      ],
      "name": "removeAccessor",
      "outputs": [],
      "stateMutability": "nonpayable",
      "type": "function"
    },
    {
      "inputs": [],
      "name": "renounceOwnership",
      "outputs": [],
      "stateMutability": "nonpayable",
      "type": "function"
    },
    {
      "inputs": [
        {
          "internalType": "address",
          "name": "from",
          "type": "address"
        },
        {
          "internalType": "address",
          "name": "to",
          "type": "address"
        },
        {
          "internalType": "uint256",
          "name": "tokenId",
          "type": "uint256"
        }
      ],
      "name": "safeTransferFrom",
      "outputs": [],
      "stateMutability": "nonpayable",
      "type": "function"
    },
    {
      "inputs": [
        {
          "internalType": "address",
          "name": "from",
          "type": "address"
        },
        {
          "internalType": "address",
          "name": "to",
          "type": "address"
        },
        {
          "internalType": "uint256",
          "name": "tokenId",
          "type": "uint256"
        },
        {
          "internalType": "bytes",
          "name": "data",
          "type": "bytes"
        }
      ],
      "name": "safeTransferFrom",
      "outputs": [],
      "stateMutability": "nonpayable",
      "type": "function"
    },
    {
      "inputs": [
        {
          "internalType": "address",
          "name": "operator",
          "type": "address"
        },
        {
          "internalType": "bool",
          "name": "approved",
          "type": "bool"
        }
      ],
      "name": "setApprovalForAll",
      "outputs": [],
      "stateMutability": "nonpayable",
      "type": "function"
    },
    {
      "inputs": [
        {
          "internalType": "bytes4",
          "name": "interfaceId",
          "type": "bytes4"
        }
      ],
      "name": "supportsInterface",
      "outputs": [
        {
          "internalType": "bool",
          "name": "",
          "type": "bool"
        }
      ],
      "stateMutability": "view",
      "type": "function"
    },
    {
      "inputs": [],
      "name": "symbol",
      "outputs": [
        {
          "internalType": "string",
          "name": "",
          "type": "string"
        }
      ],
      "stateMutability": "view",
      "type": "function"
    },
    {
      "inputs": [
        {
          "internalType": "uint256",
          "name": "_tokenId",
          "type": "uint256"
        }
      ],
      "name": "tokenURI",
      "outputs": [
        {
          "internalType": "string",
          "name": "",
          "type": "string"
        }
      ],
      "stateMutability": "view",
      "type": "function"
    },
    {
      "inputs": [
        {
          "internalType": "address",
          "name": "from",
          "type": "address"
        },
        {
          "internalType": "address",
          "name": "to",
          "type": "address"
        },
        {
          "internalType": "uint256",
          "name": "tokenId",
          "type": "uint256"
        }
      ],
      "name": "transferFrom",
      "outputs": [],
      "stateMutability": "nonpayable",
      "type": "function"
    },
    {
      "inputs": [
        {
          "internalType": "address",
          "name": "newOwner",
          "type": "address"
        }
      ],
      "name": "transferOwnership",
      "outputs": [],
      "stateMutability": "nonpayable",
      "type": "function"
    },
    {
      "inputs": [
        {
          "internalType": "uint256",
          "name": "_tokenId",
          "type": "uint256"
        },
        {
          "internalType": "string",
          "name": "_newUri",
          "type": "string"
        }
      ],
      "name": "updateMetadata",
      "outputs": [],
      "stateMutability": "nonpayable",
      "type": "function"
    }
  ],
  "bytecode": "0x60806040523480156200001157600080fd5b506040518060400160405280600581526020017f4d794e46540000000000000000000000000000000000000000000000000000008152506040518060400160405280600381526020017f4e46540000000000000000000000000000000000000000000000000000000000815250816000908051906020019062000096929190620001a6565b508060019080519060200190620000af929190620001a6565b505050620000d2620000c6620000d860201b60201c565b620000e060201b60201c565b620002bb565b600033905090565b6000600760009054906101000a900473ffffffffffffffffffffffffffffffffffffffff16905081600760006101000a81548173ffffffffffffffffffffffffffffffffffffffff021916908373ffffffffffffffffffffffffffffffffffffffff1602179055508173ffffffffffffffffffffffffffffffffffffffff168173ffffffffffffffffffffffffffffffffffffffff167f8be0079c531659141344cd1fd0a4f28419497f9722a3daafe3b4186f6b6457e060405160405180910390a35050565b828054620001b49062000256565b90600052602060002090601f016020900481019282620001d8576000855562000224565b82601f10620001f357805160ff191683800117855562000224565b8280016001018555821562000224579182015b828111156200022357825182559160200191906001019062000206565b5b50905062000233919062000237565b5090565b5b808211156200025257600081600090555060010162000238565b5090565b600060028204905060018216806200026f57607f821691505b602082108114156200028657620002856200028c565b5b50919050565b7f4e487b7100000000000000000000000000000000000000000000000000000000600052602260045260246000fd5b61374880620002cb6000396000f3fe608060405234801561001057600080fd5b506004361061014d5760003560e01c806370a08231116100c3578063b88d4fde1161007c578063b88d4fde14610376578063babcc53914610392578063c87b56dd146103c2578063e985e9c5146103f2578063eacabe1414610422578063f2fde38b146104525761014d565b806370a08231146102c6578063715018a6146102f65780638af342c5146103005780638da5cb5b1461031e57806395d89b411461033c578063a22cb4651461035a5761014d565b806323b872dd1161011557806323b872dd146102085780632ec9ad441461022457806342842e0e1461024057806353c8388e1461025c57806361081a5c146102785780636352211e146102965761014d565b806301ffc9a71461015257806306fdde0314610182578063081812fc146101a0578063095ea7b3146101d05780632333224a146101ec575b600080fd5b61016c60048036038101906101679190612825565b61046e565b6040516101799190612d4f565b60405180910390f35b61018a6104cf565b6040516101979190612d6a565b60405180910390f35b6101ba60048036038101906101b59190612877565b610561565b6040516101c79190612c9d565b60405180910390f35b6101ea60048036038101906101e591906127e9565b6105a7565b005b6102066004803603810190610201919061262a565b6106bf565b005b610222600480360381019061021d919061268f565b610762565b005b61023e6004803603810190610239919061262a565b6107c2565b005b61025a6004803603810190610255919061268f565b6109a0565b005b610276600480360381019061027191906128a0565b6109c0565b005b610280610a44565b60405161028d9190612d2d565b60405180910390f35b6102b060048036038101906102ab9190612877565b610adf565b6040516102bd9190612c9d565b60405180910390f35b6102e060048036038101906102db919061262a565b610b66565b6040516102ed9190612f8c565b60405180910390f35b6102fe610c1e565b005b610308610c32565b6040516103159190612d4f565b60405180910390f35b610326610c44565b6040516103339190612c9d565b60405180910390f35b610344610c6e565b6040516103519190612d6a565b60405180910390f35b610374600480360381019061036f9190612759565b610d00565b005b610390600480360381019061038b91906126de565b610d16565b005b6103ac60048036038101906103a7919061262a565b610d78565b6040516103b99190612d4f565b60405180910390f35b6103dc60048036038101906103d79190612877565b610eeb565b6040516103e99190612d6a565b60405180910390f35b61040c60048036038101906104079190612653565b610f45565b6040516104199190612d4f565b60405180910390f35b61043c60048036038101906104379190612795565b610fd9565b6040516104499190612f8c565b60405180910390f35b61046c6004803603810190610467919061262a565b6110b8565b005b6000634906490660e01b7bffffffffffffffffffffffffffffffffffffffffffffffffffffffff1916827bffffffffffffffffffffffffffffffffffffffffffffffffffffffff191614806104c857506104c78261113c565b5b9050919050565b6060600080546104de90613160565b80601f016020809104026020016040519081016040528092919081815260200182805461050a90613160565b80156105575780601f1061052c57610100808354040283529160200191610557565b820191906000526020600020905b81548152906001019060200180831161053a57829003601f168201915b5050505050905090565b600061056c8261121e565b6004600083815260200190815260200160002060009054906101000a900473ffffffffffffffffffffffffffffffffffffffff169050919050565b60006105b282610adf565b90508073ffffffffffffffffffffffffffffffffffffffff168373ffffffffffffffffffffffffffffffffffffffff161415610623576040517f08c379a000000000000000000000000000000000000000000000000000000000815260040161061a90612f2c565b60405180910390fd5b8073ffffffffffffffffffffffffffffffffffffffff16610642611269565b73ffffffffffffffffffffffffffffffffffffffff16148061067157506106708161066b611269565b610f45565b5b6106b0576040517f08c379a00000000000000000000000000000000000000000000000000000000081526004016106a790612f4c565b60405180910390fd5b6106ba8383611271565b505050565b600960003373ffffffffffffffffffffffffffffffffffffffff1673ffffffffffffffffffffffffffffffffffffffff168152602001908152602001600020819080600181540180825580915050600190039060005260206000200160009091909190916101000a81548173ffffffffffffffffffffffffffffffffffffffff021916908373ffffffffffffffffffffffffffffffffffffffff16021790555050565b61077361076d611269565b8261132a565b6107b2576040517f08c379a00000000000000000000000000000000000000000000000000000000081526004016107a990612d8c565b60405180910390fd5b6107bd8383836113bf565b505050565b60005b600960003373ffffffffffffffffffffffffffffffffffffffff1673ffffffffffffffffffffffffffffffffffffffff1681526020019081526020016000208054905081101561099c578173ffffffffffffffffffffffffffffffffffffffff16600960003373ffffffffffffffffffffffffffffffffffffffff1673ffffffffffffffffffffffffffffffffffffffff168152602001908152602001600020828154811061089d577f4e487b7100000000000000000000000000000000000000000000000000000000600052603260045260246000fd5b9060005260206000200160009054906101000a900473ffffffffffffffffffffffffffffffffffffffff1673ffffffffffffffffffffffffffffffffffffffff16141561098957600960003373ffffffffffffffffffffffffffffffffffffffff1673ffffffffffffffffffffffffffffffffffffffff168152602001908152602001600020818154811061095b577f4e487b7100000000000000000000000000000000000000000000000000000000600052603260045260246000fd5b9060005260206000200160006101000a81549073ffffffffffffffffffffffffffffffffffffffff02191690555b8080610994906131c3565b9150506107c5565b5050565b6109bb83838360405180602001604052806000815250610d16565b505050565b3373ffffffffffffffffffffffffffffffffffffffff166109e083610adf565b73ffffffffffffffffffffffffffffffffffffffff1614610a36576040517f08c379a0000000000000000000000000000000000000000000000000000000008152600401610a2d90612f6c565b60405180910390fd5b610a4082826116b9565b5050565b60606000600a60003373ffffffffffffffffffffffffffffffffffffffff1673ffffffffffffffffffffffffffffffffffffffff168152602001908152602001600020805480602002602001604051908101604052809291908181526020018280548015610ad157602002820191906000526020600020905b815481526020019060010190808311610abd575b505050505090508091505090565b600080610aeb83611764565b9050600073ffffffffffffffffffffffffffffffffffffffff168173ffffffffffffffffffffffffffffffffffffffff161415610b5d576040517f08c379a0000000000000000000000000000000000000000000000000000000008152600401610b5490612f0c565b60405180910390fd5b80915050919050565b60008073ffffffffffffffffffffffffffffffffffffffff168273ffffffffffffffffffffffffffffffffffffffff161415610bd7576040517f08c379a0000000000000000000000000000000000000000000000000000000008152600401610bce90612e8c565b60405180910390fd5b600360008373ffffffffffffffffffffffffffffffffffffffff1673ffffffffffffffffffffffffffffffffffffffff168152602001908152602001600020549050919050565b610c266117a1565b610c30600061181f565b565b600080610c3e33610b66565b11905090565b6000600760009054906101000a900473ffffffffffffffffffffffffffffffffffffffff16905090565b606060018054610c7d90613160565b80601f0160208091040260200160405190810160405280929190818152602001828054610ca990613160565b8015610cf65780601f10610ccb57610100808354040283529160200191610cf6565b820191906000526020600020905b815481529060010190602001808311610cd957829003601f168201915b5050505050905090565b610d12610d0b611269565b83836118e5565b5050565b610d27610d21611269565b8361132a565b610d66576040517f08c379a0000000000000000000000000000000000000000000000000000000008152600401610d5d90612d8c565b60405180910390fd5b610d7284848484611a52565b50505050565b600080600960008473ffffffffffffffffffffffffffffffffffffffff1673ffffffffffffffffffffffffffffffffffffffff168152602001908152602001600020805480602002602001604051908101604052809291908181526020018280548015610e3a57602002820191906000526020600020905b8160009054906101000a900473ffffffffffffffffffffffffffffffffffffffff1673ffffffffffffffffffffffffffffffffffffffff1681526020019060010190808311610df0575b5050505050905060005b8151811015610edf573373ffffffffffffffffffffffffffffffffffffffff16828281518110610e9d577f4e487b7100000000000000000000000000000000000000000000000000000000600052603260045260246000fd5b602002602001015173ffffffffffffffffffffffffffffffffffffffff161415610ecc57600192505050610ee6565b8080610ed7906131c3565b915050610e44565b5060009150505b919050565b6060610ef682611aae565b610f35576040517f08c379a0000000000000000000000000000000000000000000000000000000008152600401610f2c90612e6c565b60405180910390fd5b610f3e82611aef565b9050919050565b6000600560008473ffffffffffffffffffffffffffffffffffffffff1673ffffffffffffffffffffffffffffffffffffffff16815260200190815260200160002060008373ffffffffffffffffffffffffffffffffffffffff1673ffffffffffffffffffffffffffffffffffffffff16815260200190815260200160002060009054906101000a900460ff16905092915050565b6000610fe36117a1565b610fed6008611c02565b6000610ff96008611c18565b90506110058482611c26565b61100f81846116b9565b600a60003373ffffffffffffffffffffffffffffffffffffffff1673ffffffffffffffffffffffffffffffffffffffff1681526020019081526020016000208190806001815401808255809150506001900390600052602060002001600090919091909150557f1c05098ed1ff38e6238d2b1b04b2c7977d4c94ce651bda6473f9dba8dbf01da033826040516110a6929190612d04565b60405180910390a18091505092915050565b6110c06117a1565b600073ffffffffffffffffffffffffffffffffffffffff168173ffffffffffffffffffffffffffffffffffffffff161415611130576040517f08c379a000000000000000000000000000000000000000000000000000000000815260040161112790612dcc565b60405180910390fd5b6111398161181f565b50565b60007f80ac58cd000000000000000000000000000000000000000000000000000000007bffffffffffffffffffffffffffffffffffffffffffffffffffffffff1916827bffffffffffffffffffffffffffffffffffffffffffffffffffffffff1916148061120757507f5b5e139f000000000000000000000000000000000000000000000000000000007bffffffffffffffffffffffffffffffffffffffffffffffffffffffff1916827bffffffffffffffffffffffffffffffffffffffffffffffffffffffff1916145b80611217575061121682611e44565b5b9050919050565b61122781611aae565b611266576040517f08c379a000000000000000000000000000000000000000000000000000000000815260040161125d90612f0c565b60405180910390fd5b50565b600033905090565b816004600083815260200190815260200160002060006101000a81548173ffffffffffffffffffffffffffffffffffffffff021916908373ffffffffffffffffffffffffffffffffffffffff160217905550808273ffffffffffffffffffffffffffffffffffffffff166112e483610adf565b73ffffffffffffffffffffffffffffffffffffffff167f8c5be1e5ebec7d5bd14f71427d1e84f3dd0314c0f7b2291e5b200ac8c7c3b92560405160405180910390a45050565b60008061133683610adf565b90508073ffffffffffffffffffffffffffffffffffffffff168473ffffffffffffffffffffffffffffffffffffffff16148061137857506113778185610f45565b5b806113b657508373ffffffffffffffffffffffffffffffffffffffff1661139e84610561565b73ffffffffffffffffffffffffffffffffffffffff16145b91505092915050565b8273ffffffffffffffffffffffffffffffffffffffff166113df82610adf565b73ffffffffffffffffffffffffffffffffffffffff1614611435576040517f08c379a000000000000000000000000000000000000000000000000000000000815260040161142c90612dec565b60405180910390fd5b600073ffffffffffffffffffffffffffffffffffffffff168273ffffffffffffffffffffffffffffffffffffffff1614156114a5576040517f08c379a000000000000000000000000000000000000000000000000000000000815260040161149c90612e2c565b60405180910390fd5b6114b28383836001611eae565b8273ffffffffffffffffffffffffffffffffffffffff166114d282610adf565b73ffffffffffffffffffffffffffffffffffffffff1614611528576040517f08c379a000000000000000000000000000000000000000000000000000000000815260040161151f90612dec565b60405180910390fd5b6004600082815260200190815260200160002060006101000a81549073ffffffffffffffffffffffffffffffffffffffff02191690556001600360008573ffffffffffffffffffffffffffffffffffffffff1673ffffffffffffffffffffffffffffffffffffffff168152602001908152602001600020600082825403925050819055506001600360008473ffffffffffffffffffffffffffffffffffffffff1673ffffffffffffffffffffffffffffffffffffffff16815260200190815260200160002060008282540192505081905550816002600083815260200190815260200160002060006101000a81548173ffffffffffffffffffffffffffffffffffffffff021916908373ffffffffffffffffffffffffffffffffffffffff160217905550808273ffffffffffffffffffffffffffffffffffffffff168473ffffffffffffffffffffffffffffffffffffffff167fddf252ad1be2c89b69c2b068fc378daa952ba7f163c4a11628f55a4df523b3ef60405160405180910390a46116b48383836001611eb4565b505050565b6116c282611aae565b611701576040517f08c379a00000000000000000000000000000000000000000000000000000000081526004016116f890612eac565b60405180910390fd5b8060066000848152602001908152602001600020908051906020019061172892919061244e565b507ff8e1a15aba9398e019f0b49df1a4fde98ee17ae345cb5f6b5e2c27f5033e8ce7826040516117589190612f8c565b60405180910390a15050565b60006002600083815260200190815260200160002060009054906101000a900473ffffffffffffffffffffffffffffffffffffffff169050919050565b6117a9611269565b73ffffffffffffffffffffffffffffffffffffffff166117c7610c44565b73ffffffffffffffffffffffffffffffffffffffff161461181d576040517f08c379a000000000000000000000000000000000000000000000000000000000815260040161181490612eec565b60405180910390fd5b565b6000600760009054906101000a900473ffffffffffffffffffffffffffffffffffffffff16905081600760006101000a81548173ffffffffffffffffffffffffffffffffffffffff021916908373ffffffffffffffffffffffffffffffffffffffff1602179055508173ffffffffffffffffffffffffffffffffffffffff168173ffffffffffffffffffffffffffffffffffffffff167f8be0079c531659141344cd1fd0a4f28419497f9722a3daafe3b4186f6b6457e060405160405180910390a35050565b8173ffffffffffffffffffffffffffffffffffffffff168373ffffffffffffffffffffffffffffffffffffffff161415611954576040517f08c379a000000000000000000000000000000000000000000000000000000000815260040161194b90612e4c565b60405180910390fd5b80600560008573ffffffffffffffffffffffffffffffffffffffff1673ffffffffffffffffffffffffffffffffffffffff16815260200190815260200160002060008473ffffffffffffffffffffffffffffffffffffffff1673ffffffffffffffffffffffffffffffffffffffff16815260200190815260200160002060006101000a81548160ff0219169083151502179055508173ffffffffffffffffffffffffffffffffffffffff168373ffffffffffffffffffffffffffffffffffffffff167f17307eab39ab6107e8899845ad3d59bd9653f200f220920489ca2b5937696c3183604051611a459190612d4f565b60405180910390a3505050565b611a5d8484846113bf565b611a6984848484611eba565b611aa8576040517f08c379a0000000000000000000000000000000000000000000000000000000008152600401611a9f90612dac565b60405180910390fd5b50505050565b60008073ffffffffffffffffffffffffffffffffffffffff16611ad083611764565b73ffffffffffffffffffffffffffffffffffffffff1614159050919050565b6060611afa8261121e565b6000600660008481526020019081526020016000208054611b1a90613160565b80601f0160208091040260200160405190810160405280929190818152602001828054611b4690613160565b8015611b935780601f10611b6857610100808354040283529160200191611b93565b820191906000526020600020905b815481529060010190602001808311611b7657829003601f168201915b505050505090506000611ba4612051565b9050600081511415611bba578192505050611bfd565b600082511115611bef578082604051602001611bd7929190612c79565b60405160208183030381529060405292505050611bfd565b611bf884612068565b925050505b919050565b6001816000016000828254019250508190555050565b600081600001549050919050565b600073ffffffffffffffffffffffffffffffffffffffff168273ffffffffffffffffffffffffffffffffffffffff161415611c96576040517f08c379a0000000000000000000000000000000000000000000000000000000008152600401611c8d90612ecc565b60405180910390fd5b611c9f81611aae565b15611cdf576040517f08c379a0000000000000000000000000000000000000000000000000000000008152600401611cd690612e0c565b60405180910390fd5b611ced600083836001611eae565b611cf681611aae565b15611d36576040517f08c379a0000000000000000000000000000000000000000000000000000000008152600401611d2d90612e0c565b60405180910390fd5b6001600360008473ffffffffffffffffffffffffffffffffffffffff1673ffffffffffffffffffffffffffffffffffffffff16815260200190815260200160002060008282540192505081905550816002600083815260200190815260200160002060006101000a81548173ffffffffffffffffffffffffffffffffffffffff021916908373ffffffffffffffffffffffffffffffffffffffff160217905550808273ffffffffffffffffffffffffffffffffffffffff16600073ffffffffffffffffffffffffffffffffffffffff167fddf252ad1be2c89b69c2b068fc378daa952ba7f163c4a11628f55a4df523b3ef60405160405180910390a4611e40600083836001611eb4565b5050565b60007f01ffc9a7000000000000000000000000000000000000000000000000000000007bffffffffffffffffffffffffffffffffffffffffffffffffffffffff1916827bffffffffffffffffffffffffffffffffffffffffffffffffffffffff1916149050919050565b50505050565b50505050565b6000611edb8473ffffffffffffffffffffffffffffffffffffffff166120d0565b15612044578373ffffffffffffffffffffffffffffffffffffffff1663150b7a02611f04611269565b8786866040518563ffffffff1660e01b8152600401611f269493929190612cb8565b602060405180830381600087803b158015611f4057600080fd5b505af1925050508015611f7157506040513d601f19601f82011682018060405250810190611f6e919061284e565b60015b611ff4573d8060008114611fa1576040519150601f19603f3d011682016040523d82523d6000602084013e611fa6565b606091505b50600081511415611fec576040517f08c379a0000000000000000000000000000000000000000000000000000000008152600401611fe390612dac565b60405180910390fd5b805181602001fd5b63150b7a0260e01b7bffffffffffffffffffffffffffffffffffffffffffffffffffffffff1916817bffffffffffffffffffffffffffffffffffffffffffffffffffffffff191614915050612049565b600190505b949350505050565b606060405180602001604052806000815250905090565b60606120738261121e565b600061207d612051565b9050600081511161209d57604051806020016040528060008152506120c8565b806120a7846120f3565b6040516020016120b8929190612c79565b6040516020818303038152906040525b915050919050565b6000808273ffffffffffffffffffffffffffffffffffffffff163b119050919050565b60606000600161210284612217565b01905060008167ffffffffffffffff811115612147577f4e487b7100000000000000000000000000000000000000000000000000000000600052604160045260246000fd5b6040519080825280601f01601f1916602001820160405280156121795781602001600182028036833780820191505090505b509050600082602001820190505b60011561220c578080600190039150507f3031323334353637383961626364656600000000000000000000000000000000600a86061a8153600a85816121f6577f4e487b7100000000000000000000000000000000000000000000000000000000600052601260045260246000fd5b04945060008514156122075761220c565b612187565b819350505050919050565b600080600090507a184f03e93ff9f4daa797ed6e38ed64bf6a1f010000000000000000831061229b577a184f03e93ff9f4daa797ed6e38ed64bf6a1f0100000000000000008381612291577f4e487b7100000000000000000000000000000000000000000000000000000000600052601260045260246000fd5b0492506040810190505b6d04ee2d6d415b85acef810000000083106122fe576d04ee2d6d415b85acef810000000083816122f4577f4e487b7100000000000000000000000000000000000000000000000000000000600052601260045260246000fd5b0492506020810190505b662386f26fc10000831061235357662386f26fc100008381612349577f4e487b7100000000000000000000000000000000000000000000000000000000600052601260045260246000fd5b0492506010810190505b6305f5e10083106123a2576305f5e1008381612398577f4e487b7100000000000000000000000000000000000000000000000000000000600052601260045260246000fd5b0492506008810190505b61271083106123ed5761271083816123e3577f4e487b7100000000000000000000000000000000000000000000000000000000600052601260045260246000fd5b0492506004810190505b60648310612436576064838161242c577f4e487b7100000000000000000000000000000000000000000000000000000000600052601260045260246000fd5b0492506002810190505b600a8310612445576001810190505b80915050919050565b82805461245a90613160565b90600052602060002090601f01602090048101928261247c57600085556124c3565b82601f1061249557805160ff19168380011785556124c3565b828001600101855582156124c3579182015b828111156124c25782518255916020019190600101906124a7565b5b5090506124d091906124d4565b5090565b5b808211156124ed5760008160009055506001016124d5565b5090565b60006125046124ff84612fcc565b612fa7565b90508281526020810184848401111561251c57600080fd5b61252784828561311e565b509392505050565b600061254261253d84612ffd565b612fa7565b90508281526020810184848401111561255a57600080fd5b61256584828561311e565b509392505050565b60008135905061257c816136b6565b92915050565b600081359050612591816136cd565b92915050565b6000813590506125a6816136e4565b92915050565b6000815190506125bb816136e4565b92915050565b600082601f8301126125d257600080fd5b81356125e28482602086016124f1565b91505092915050565b600082601f8301126125fc57600080fd5b813561260c84826020860161252f565b91505092915050565b600081359050612624816136fb565b92915050565b60006020828403121561263c57600080fd5b600061264a8482850161256d565b91505092915050565b6000806040838503121561266657600080fd5b60006126748582860161256d565b92505060206126858582860161256d565b9150509250929050565b6000806000606084860312156126a457600080fd5b60006126b28682870161256d565b93505060206126c38682870161256d565b92505060406126d486828701612615565b9150509250925092565b600080600080608085870312156126f457600080fd5b60006127028782880161256d565b94505060206127138782880161256d565b935050604061272487828801612615565b925050606085013567ffffffffffffffff81111561274157600080fd5b61274d878288016125c1565b91505092959194509250565b6000806040838503121561276c57600080fd5b600061277a8582860161256d565b925050602061278b85828601612582565b9150509250929050565b600080604083850312156127a857600080fd5b60006127b68582860161256d565b925050602083013567ffffffffffffffff8111156127d357600080fd5b6127df858286016125eb565b9150509250929050565b600080604083850312156127fc57600080fd5b600061280a8582860161256d565b925050602061281b85828601612615565b9150509250929050565b60006020828403121561283757600080fd5b600061284584828501612597565b91505092915050565b60006020828403121561286057600080fd5b600061286e848285016125ac565b91505092915050565b60006020828403121561288957600080fd5b600061289784828501612615565b91505092915050565b600080604083850312156128b357600080fd5b60006128c185828601612615565b925050602083013567ffffffffffffffff8111156128de57600080fd5b6128ea858286016125eb565b9150509250929050565b60006129008383612c5b565b60208301905092915050565b612915816130aa565b82525050565b60006129268261303e565b612930818561306c565b935061293b8361302e565b8060005b8381101561296c57815161295388826128f4565b975061295e8361305f565b92505060018101905061293f565b5085935050505092915050565b612982816130bc565b82525050565b600061299382613049565b61299d818561307d565b93506129ad81856020860161312d565b6129b681613299565b840191505092915050565b60006129cc82613054565b6129d6818561308e565b93506129e681856020860161312d565b6129ef81613299565b840191505092915050565b6000612a0582613054565b612a0f818561309f565b9350612a1f81856020860161312d565b80840191505092915050565b6000612a38602d8361308e565b9150612a43826132aa565b604082019050919050565b6000612a5b60328361308e565b9150612a66826132f9565b604082019050919050565b6000612a7e60268361308e565b9150612a8982613348565b604082019050919050565b6000612aa160258361308e565b9150612aac82613397565b604082019050919050565b6000612ac4601c8361308e565b9150612acf826133e6565b602082019050919050565b6000612ae760248361308e565b9150612af28261340f565b604082019050919050565b6000612b0a60198361308e565b9150612b158261345e565b602082019050919050565b6000612b2d60178361308e565b9150612b3882613487565b602082019050919050565b6000612b5060298361308e565b9150612b5b826134b0565b604082019050919050565b6000612b73602e8361308e565b9150612b7e826134ff565b604082019050919050565b6000612b9660208361308e565b9150612ba18261354e565b602082019050919050565b6000612bb960208361308e565b9150612bc482613577565b602082019050919050565b6000612bdc60188361308e565b9150612be7826135a0565b602082019050919050565b6000612bff60218361308e565b9150612c0a826135c9565b604082019050919050565b6000612c22603d8361308e565b9150612c2d82613618565b604082019050919050565b6000612c4560238361308e565b9150612c5082613667565b604082019050919050565b612c6481613114565b82525050565b612c7381613114565b82525050565b6000612c8582856129fa565b9150612c9182846129fa565b91508190509392505050565b6000602082019050612cb2600083018461290c565b92915050565b6000608082019050612ccd600083018761290c565b612cda602083018661290c565b612ce76040830185612c6a565b8181036060830152612cf98184612988565b905095945050505050565b6000604082019050612d19600083018561290c565b612d266020830184612c6a565b9392505050565b60006020820190508181036000830152612d47818461291b565b905092915050565b6000602082019050612d646000830184612979565b92915050565b60006020820190508181036000830152612d8481846129c1565b905092915050565b60006020820190508181036000830152612da581612a2b565b9050919050565b60006020820190508181036000830152612dc581612a4e565b9050919050565b60006020820190508181036000830152612de581612a71565b9050919050565b60006020820190508181036000830152612e0581612a94565b9050919050565b60006020820190508181036000830152612e2581612ab7565b9050919050565b60006020820190508181036000830152612e4581612ada565b9050919050565b60006020820190508181036000830152612e6581612afd565b9050919050565b60006020820190508181036000830152612e8581612b20565b9050919050565b60006020820190508181036000830152612ea581612b43565b9050919050565b60006020820190508181036000830152612ec581612b66565b9050919050565b60006020820190508181036000830152612ee581612b89565b9050919050565b60006020820190508181036000830152612f0581612bac565b9050919050565b60006020820190508181036000830152612f2581612bcf565b9050919050565b60006020820190508181036000830152612f4581612bf2565b9050919050565b60006020820190508181036000830152612f6581612c15565b9050919050565b60006020820190508181036000830152612f8581612c38565b9050919050565b6000602082019050612fa16000830184612c6a565b92915050565b6000612fb1612fc2565b9050612fbd8282613192565b919050565b6000604051905090565b600067ffffffffffffffff821115612fe757612fe661326a565b5b612ff082613299565b9050602081019050919050565b600067ffffffffffffffff8211156130185761301761326a565b5b61302182613299565b9050602081019050919050565b6000819050602082019050919050565b600081519050919050565b600081519050919050565b600081519050919050565b6000602082019050919050565b600082825260208201905092915050565b600082825260208201905092915050565b600082825260208201905092915050565b600081905092915050565b60006130b5826130f4565b9050919050565b60008115159050919050565b60007fffffffff0000000000000000000000000000000000000000000000000000000082169050919050565b600073ffffffffffffffffffffffffffffffffffffffff82169050919050565b6000819050919050565b82818337600083830152505050565b60005b8381101561314b578082015181840152602081019050613130565b8381111561315a576000848401525b50505050565b6000600282049050600182168061317857607f821691505b6020821081141561318c5761318b61323b565b5b50919050565b61319b82613299565b810181811067ffffffffffffffff821117156131ba576131b961326a565b5b80604052505050565b60006131ce82613114565b91507fffffffffffffffffffffffffffffffffffffffffffffffffffffffffffffffff8214156132015761320061320c565b5b600182019050919050565b7f4e487b7100000000000000000000000000000000000000000000000000000000600052601160045260246000fd5b7f4e487b7100000000000000000000000000000000000000000000000000000000600052602260045260246000fd5b7f4e487b7100000000000000000000000000000000000000000000000000000000600052604160045260246000fd5b6000601f19601f8301169050919050565b7f4552433732313a2063616c6c6572206973206e6f7420746f6b656e206f776e6560008201527f72206f7220617070726f76656400000000000000000000000000000000000000602082015250565b7f4552433732313a207472616e7366657220746f206e6f6e20455243373231526560008201527f63656976657220696d706c656d656e7465720000000000000000000000000000602082015250565b7f4f776e61626c653a206e6577206f776e657220697320746865207a65726f206160008201527f6464726573730000000000000000000000000000000000000000000000000000602082015250565b7f4552433732313a207472616e736665722066726f6d20696e636f72726563742060008201527f6f776e6572000000000000000000000000000000000000000000000000000000602082015250565b7f4552433732313a20746f6b656e20616c7265616479206d696e74656400000000600082015250565b7f4552433732313a207472616e7366657220746f20746865207a65726f2061646460008201527f7265737300000000000000000000000000000000000000000000000000000000602082015250565b7f4552433732313a20617070726f766520746f2063616c6c657200000000000000600082015250565b7f546f6b656e20494420646f6573206e6f74206578697374000000000000000000600082015250565b7f4552433732313a2061646472657373207a65726f206973206e6f74206120766160008201527f6c6964206f776e65720000000000000000000000000000000000000000000000602082015250565b7f45524337323155524953746f726167653a2055524920736574206f66206e6f6e60008201527f6578697374656e7420746f6b656e000000000000000000000000000000000000602082015250565b7f4552433732313a206d696e7420746f20746865207a65726f2061646472657373600082015250565b7f4f776e61626c653a2063616c6c6572206973206e6f7420746865206f776e6572600082015250565b7f4552433732313a20696e76616c696420746f6b656e2049440000000000000000600082015250565b7f4552433732313a20617070726f76616c20746f2063757272656e74206f776e6560008201527f7200000000000000000000000000000000000000000000000000000000000000602082015250565b7f4552433732313a20617070726f76652063616c6c6572206973206e6f7420746f60008201527f6b656e206f776e6572206f7220617070726f76656420666f7220616c6c000000602082015250565b7f596f7520617265206e6f7420746865206f776e6572206f66207468697320746f60008201527f6b656e0000000000000000000000000000000000000000000000000000000000602082015250565b6136bf816130aa565b81146136ca57600080fd5b50565b6136d6816130bc565b81146136e157600080fd5b50565b6136ed816130c8565b81146136f857600080fd5b50565b61370481613114565b811461370f57600080fd5b5056fea2646970667358221220a943f092998e9e3cc0ab0181b8e8289e177632321f0361f2594df3f8128fd43464736f6c63430008010033",
  "linkReferences": {},
  "deployedLinkReferences": {}
}