{
  "_format": "hh-sol-artifact-1",
  "contractName": "NFT",
  "sourceName": "contracts/NFT.sol",
  "abi": [
    {
      "inputs": [],
      "stateMutability": "nonpayable",
      "type": "constructor"
    },
    {
      "anonymous": false,
      "inputs": [
        {
          "indexed": true,
          "internalType": "address",
          "name": "owner",
          "type": "address"
        },
        {
          "indexed": true,
          "internalType": "address",
          "name": "approved",
          "type": "address"
        },
        {
          "indexed": true,
          "internalType": "uint256",
          "name": "tokenId",
          "type": "uint256"
        }
      ],
      "name": "Approval",
      "type": "event"
    },
    {
      "anonymous": false,
      "inputs": [
        {
          "indexed": true,
          "internalType": "address",
          "name": "owner",
          "type": "address"
        },
        {
          "indexed": true,
          "internalType": "address",
          "name": "operator",
          "type": "address"
        },
        {
          "indexed": false,
          "internalType": "bool",
          "name": "approved",
          "type": "bool"
        }
      ],
      "name": "ApprovalForAll",
      "type": "event"
    },
    {
      "anonymous": false,
      "inputs": [
        {
          "indexed": false,
          "internalType": "uint256",
          "name": "_fromTokenId",
          "type": "uint256"
        },
        {
          "indexed": false,
          "internalType": "uint256",
          "name": "_toTokenId",
          "type": "uint256"
        }
      ],
      "name": "BatchMetadataUpdate",
      "type": "event"
    },
    {
      "anonymous": false,
      "inputs": [
        {
          "indexed": false,
          "internalType": "uint256",
          "name": "_tokenId",
          "type": "uint256"
        }
      ],
      "name": "MetadataUpdate",
      "type": "event"
    },
    {
      "anonymous": false,
      "inputs": [
        {
          "indexed": false,
          "internalType": "address",
          "name": "sender",
          "type": "address"
        },
        {
          "indexed": false,
          "internalType": "uint256",
          "name": "tokenId",
          "type": "uint256"
        }
      ],
      "name": "NewNFTMinted",
      "type": "event"
    },
    {
      "anonymous": false,
      "inputs": [
        {
          "indexed": true,
          "internalType": "address",
          "name": "previousOwner",
          "type": "address"
        },
        {
          "indexed": true,
          "internalType": "address",
          "name": "newOwner",
          "type": "address"
        }
      ],
      "name": "OwnershipTransferred",
      "type": "event"
    },
    {
      "anonymous": false,
      "inputs": [
        {
          "indexed": true,
          "internalType": "address",
          "name": "from",
          "type": "address"
        },
        {
          "indexed": true,
          "internalType": "address",
          "name": "to",
          "type": "address"
        },
        {
          "indexed": true,
          "internalType": "uint256",
          "name": "tokenId",
          "type": "uint256"
        }
      ],
      "name": "Transfer",
      "type": "event"
    },
    {
      "inputs": [
        {
          "internalType": "address",
          "name": "accessor",
          "type": "address"
        }
      ],
      "name": "addAccessors",
      "outputs": [],
      "stateMutability": "nonpayable",
      "type": "function"
    },
    {
      "inputs": [
        {
          "internalType": "address",
          "name": "to",
          "type": "address"
        },
        {
          "internalType": "uint256",
          "name": "tokenId",
          "type": "uint256"
        }
      ],
      "name": "approve",
      "outputs": [],
      "stateMutability": "nonpayable",
      "type": "function"
    },
    {
      "inputs": [
        {
          "internalType": "address",
          "name": "owner",
          "type": "address"
        }
      ],
      "name": "balanceOf",
      "outputs": [
        {
          "internalType": "uint256",
          "name": "",
          "type": "uint256"
        }
      ],
      "stateMutability": "view",
      "type": "function"
    },
    {
      "inputs": [
        {
          "internalType": "uint256",
          "name": "tokenId",
          "type": "uint256"
        }
      ],
      "name": "getApproved",
      "outputs": [
        {
          "internalType": "address",
          "name": "",
          "type": "address"
        }
      ],
      "stateMutability": "view",
      "type": "function"
    },
    {
      "inputs": [
        {
          "internalType": "address",
          "name": "userAddress",
          "type": "address"
        }
      ],
      "name": "getTokensByUser",
      "outputs": [
        {
          "internalType": "uint256[]",
          "name": "",
          "type": "uint256[]"
        }
      ],
      "stateMutability": "view",
      "type": "function"
    },
    {
      "inputs": [
        {
          "internalType": "address",
          "name": "userAddress",
          "type": "address"
        }
      ],
      "name": "hasMintedNFT",
      "outputs": [
        {
          "internalType": "bool",
          "name": "",
          "type": "bool"
        }
      ],
      "stateMutability": "view",
      "type": "function"
    },
    {
      "inputs": [
        {
          "internalType": "address",
          "name": "userId",
          "type": "address"
        }
      ],
      "name": "isAllowed",
      "outputs": [
        {
          "internalType": "bool",
          "name": "",
          "type": "bool"
        }
      ],
      "stateMutability": "view",
      "type": "function"
    },
    {
      "inputs": [
        {
          "internalType": "address",
          "name": "owner",
          "type": "address"
        },
        {
          "internalType": "address",
          "name": "operator",
          "type": "address"
        }
      ],
      "name": "isApprovedForAll",
      "outputs": [
        {
          "internalType": "bool",
          "name": "",
          "type": "bool"
        }
      ],
      "stateMutability": "view",
      "type": "function"
    },
    {
      "inputs": [
        {
          "internalType": "address",
          "name": "recipient",
          "type": "address"
        },
        {
          "internalType": "string",
          "name": "tokenURI",
          "type": "string"
        }
      ],
      "name": "mintNFT",
      "outputs": [
        {
          "internalType": "uint256",
          "name": "",
          "type": "uint256"
        }
      ],
      "stateMutability": "nonpayable",
      "type": "function"
    },
    {
      "inputs": [],
      "name": "name",
      "outputs": [
        {
          "internalType": "string",
          "name": "",
          "type": "string"
        }
      ],
      "stateMutability": "view",
      "type": "function"
    },
    {
      "inputs": [],
      "name": "owner",
      "outputs": [
        {
          "internalType": "address",
          "name": "",
          "type": "address"
        }
      ],
      "stateMutability": "view",
      "type": "function"
    },
    {
      "inputs": [
        {
          "internalType": "uint256",
          "name": "tokenId",
          "type": "uint256"
        }
      ],
      "name": "ownerOf",
      "outputs": [
        {
          "internalType": "address",
          "name": "",
          "type": "address"
        }
      ],
      "stateMutability": "view",
      "type": "function"
    },
    {
      "inputs": [
        {
          "internalType": "address",
          "name": "accessor",
          "type": "address"
        }
      ],
      "name": "removeAccessor",
      "outputs": [],
      "stateMutability": "nonpayable",
      "type": "function"
    },
    {
      "inputs": [],
      "name": "renounceOwnership",
      "outputs": [],
      "stateMutability": "nonpayable",
      "type": "function"
    },
    {
      "inputs": [
        {
          "internalType": "address",
          "name": "from",
          "type": "address"
        },
        {
          "internalType": "address",
          "name": "to",
          "type": "address"
        },
        {
          "internalType": "uint256",
          "name": "tokenId",
          "type": "uint256"
        }
      ],
      "name": "safeTransferFrom",
      "outputs": [],
      "stateMutability": "nonpayable",
      "type": "function"
    },
    {
      "inputs": [
        {
          "internalType": "address",
          "name": "from",
          "type": "address"
        },
        {
          "internalType": "address",
          "name": "to",
          "type": "address"
        },
        {
          "internalType": "uint256",
          "name": "tokenId",
          "type": "uint256"
        },
        {
          "internalType": "bytes",
          "name": "data",
          "type": "bytes"
        }
      ],
      "name": "safeTransferFrom",
      "outputs": [],
      "stateMutability": "nonpayable",
      "type": "function"
    },
    {
      "inputs": [
        {
          "internalType": "address",
          "name": "operator",
          "type": "address"
        },
        {
          "internalType": "bool",
          "name": "approved",
          "type": "bool"
        }
      ],
      "name": "setApprovalForAll",
      "outputs": [],
      "stateMutability": "nonpayable",
      "type": "function"
    },
    {
      "inputs": [
        {
          "internalType": "bytes4",
          "name": "interfaceId",
          "type": "bytes4"
        }
      ],
      "name": "supportsInterface",
      "outputs": [
        {
          "internalType": "bool",
          "name": "",
          "type": "bool"
        }
      ],
      "stateMutability": "view",
      "type": "function"
    },
    {
      "inputs": [],
      "name": "symbol",
      "outputs": [
        {
          "internalType": "string",
          "name": "",
          "type": "string"
        }
      ],
      "stateMutability": "view",
      "type": "function"
    },
    {
      "inputs": [
        {
          "internalType": "uint256",
          "name": "_tokenId",
          "type": "uint256"
        }
      ],
      "name": "tokenURI",
      "outputs": [
        {
          "internalType": "string",
          "name": "",
          "type": "string"
        }
      ],
      "stateMutability": "view",
      "type": "function"
    },
    {
      "inputs": [
        {
          "internalType": "address",
          "name": "from",
          "type": "address"
        },
        {
          "internalType": "address",
          "name": "to",
          "type": "address"
        },
        {
          "internalType": "uint256",
          "name": "tokenId",
          "type": "uint256"
        }
      ],
      "name": "transferFrom",
      "outputs": [],
      "stateMutability": "nonpayable",
      "type": "function"
    },
    {
      "inputs": [
        {
          "internalType": "address",
          "name": "newOwner",
          "type": "address"
        }
      ],
      "name": "transferOwnership",
      "outputs": [],
      "stateMutability": "nonpayable",
      "type": "function"
    },
    {
      "inputs": [
        {
          "internalType": "uint256",
          "name": "_tokenId",
          "type": "uint256"
        },
        {
          "internalType": "string",
          "name": "_newUri",
          "type": "string"
        }
      ],
      "name": "updateMetadata",
      "outputs": [],
      "stateMutability": "nonpayable",
      "type": "function"
    }
  ],
  "bytecode": "0x60806040523480156200001157600080fd5b506040518060400160405280600581526020017f4d794e46540000000000000000000000000000000000000000000000000000008152506040518060400160405280600381526020017f4e46540000000000000000000000000000000000000000000000000000000000815250816000908051906020019062000096929190620001a6565b508060019080519060200190620000af929190620001a6565b505050620000d2620000c6620000d860201b60201c565b620000e060201b60201c565b620002bb565b600033905090565b6000600760009054906101000a900473ffffffffffffffffffffffffffffffffffffffff16905081600760006101000a81548173ffffffffffffffffffffffffffffffffffffffff021916908373ffffffffffffffffffffffffffffffffffffffff1602179055508173ffffffffffffffffffffffffffffffffffffffff168173ffffffffffffffffffffffffffffffffffffffff167f8be0079c531659141344cd1fd0a4f28419497f9722a3daafe3b4186f6b6457e060405160405180910390a35050565b828054620001b49062000256565b90600052602060002090601f016020900481019282620001d8576000855562000224565b82601f10620001f357805160ff191683800117855562000224565b8280016001018555821562000224579182015b828111156200022357825182559160200191906001019062000206565b5b50905062000233919062000237565b5090565b5b808211156200025257600081600090555060010162000238565b5090565b600060028204905060018216806200026f57607f821691505b602082108114156200028657620002856200028c565b5b50919050565b7f4e487b7100000000000000000000000000000000000000000000000000000000600052602260045260246000fd5b61366080620002cb6000396000f3fe608060405234801561001057600080fd5b506004361061014d5760003560e01c8063715018a6116100c3578063babcc5391161007c578063babcc53914610386578063c87b56dd146103b6578063e28cb25a146103e6578063e985e9c514610416578063eacabe1414610446578063f2fde38b146104765761014d565b8063715018a6146102d857806380370075146102e25780638da5cb5b1461031257806395d89b4114610330578063a22cb4651461034e578063b88d4fde1461036a5761014d565b806323b872dd1161011557806323b872dd146102085780632ec9ad441461022457806342842e0e1461024057806353c8388e1461025c5780636352211e1461027857806370a08231146102a85761014d565b806301ffc9a71461015257806306fdde0314610182578063081812fc146101a0578063095ea7b3146101d05780632333224a146101ec575b600080fd5b61016c600480360381019061016791906127cf565b610492565b6040516101799190612cd6565b60405180910390f35b61018a6104f3565b6040516101979190612cf1565b60405180910390f35b6101ba60048036038101906101b59190612821565b610585565b6040516101c79190612c24565b60405180910390f35b6101ea60048036038101906101e59190612793565b6105cb565b005b610206600480360381019061020191906125d4565b6106e3565b005b610222600480360381019061021d9190612639565b610786565b005b61023e600480360381019061023991906125d4565b6107e6565b005b61025a60048036038101906102559190612639565b6109c4565b005b6102766004803603810190610271919061284a565b6109e4565b005b610292600480360381019061028d9190612821565b6109f2565b60405161029f9190612c24565b60405180910390f35b6102c260048036038101906102bd91906125d4565b610a79565b6040516102cf9190612ef3565b60405180910390f35b6102e0610b31565b005b6102fc60048036038101906102f791906125d4565b610b45565b6040516103099190612cb4565b60405180910390f35b61031a610be2565b6040516103279190612c24565b60405180910390f35b610338610c0c565b6040516103459190612cf1565b60405180910390f35b61036860048036038101906103639190612703565b610c9e565b005b610384600480360381019061037f9190612688565b610cb4565b005b6103a0600480360381019061039b91906125d4565b610d16565b6040516103ad9190612cd6565b60405180910390f35b6103d060048036038101906103cb9190612821565b610e89565b6040516103dd9190612cf1565b60405180910390f35b61040060048036038101906103fb91906125d4565b610ee3565b60405161040d9190612cd6565b60405180910390f35b610430600480360381019061042b91906125fd565b610ef7565b60405161043d9190612cd6565b60405180910390f35b610460600480360381019061045b919061273f565b610f8b565b60405161046d9190612ef3565b60405180910390f35b610490600480360381019061048b91906125d4565b611062565b005b6000634906490660e01b7bffffffffffffffffffffffffffffffffffffffffffffffffffffffff1916827bffffffffffffffffffffffffffffffffffffffffffffffffffffffff191614806104ec57506104eb826110e6565b5b9050919050565b606060008054610502906130c7565b80601f016020809104026020016040519081016040528092919081815260200182805461052e906130c7565b801561057b5780601f106105505761010080835404028352916020019161057b565b820191906000526020600020905b81548152906001019060200180831161055e57829003601f168201915b5050505050905090565b6000610590826111c8565b6004600083815260200190815260200160002060009054906101000a900473ffffffffffffffffffffffffffffffffffffffff169050919050565b60006105d6826109f2565b90508073ffffffffffffffffffffffffffffffffffffffff168373ffffffffffffffffffffffffffffffffffffffff161415610647576040517f08c379a000000000000000000000000000000000000000000000000000000000815260040161063e90612eb3565b60405180910390fd5b8073ffffffffffffffffffffffffffffffffffffffff16610666611213565b73ffffffffffffffffffffffffffffffffffffffff16148061069557506106948161068f611213565b610ef7565b5b6106d4576040517f08c379a00000000000000000000000000000000000000000000000000000000081526004016106cb90612ed3565b60405180910390fd5b6106de838361121b565b505050565b600960003373ffffffffffffffffffffffffffffffffffffffff1673ffffffffffffffffffffffffffffffffffffffff168152602001908152602001600020819080600181540180825580915050600190039060005260206000200160009091909190916101000a81548173ffffffffffffffffffffffffffffffffffffffff021916908373ffffffffffffffffffffffffffffffffffffffff16021790555050565b610797610791611213565b826112d4565b6107d6576040517f08c379a00000000000000000000000000000000000000000000000000000000081526004016107cd90612d13565b60405180910390fd5b6107e1838383611369565b505050565b60005b600960003373ffffffffffffffffffffffffffffffffffffffff1673ffffffffffffffffffffffffffffffffffffffff168152602001908152602001600020805490508110156109c0578173ffffffffffffffffffffffffffffffffffffffff16600960003373ffffffffffffffffffffffffffffffffffffffff1673ffffffffffffffffffffffffffffffffffffffff16815260200190815260200160002082815481106108c1577f4e487b7100000000000000000000000000000000000000000000000000000000600052603260045260246000fd5b9060005260206000200160009054906101000a900473ffffffffffffffffffffffffffffffffffffffff1673ffffffffffffffffffffffffffffffffffffffff1614156109ad57600960003373ffffffffffffffffffffffffffffffffffffffff1673ffffffffffffffffffffffffffffffffffffffff168152602001908152602001600020818154811061097f577f4e487b7100000000000000000000000000000000000000000000000000000000600052603260045260246000fd5b9060005260206000200160006101000a81549073ffffffffffffffffffffffffffffffffffffffff02191690555b80806109b89061312a565b9150506107e9565b5050565b6109df83838360405180602001604052806000815250610cb4565b505050565b6109ee8282611663565b5050565b6000806109fe8361170e565b9050600073ffffffffffffffffffffffffffffffffffffffff168173ffffffffffffffffffffffffffffffffffffffff161415610a70576040517f08c379a0000000000000000000000000000000000000000000000000000000008152600401610a6790612e93565b60405180910390fd5b80915050919050565b60008073ffffffffffffffffffffffffffffffffffffffff168273ffffffffffffffffffffffffffffffffffffffff161415610aea576040517f08c379a0000000000000000000000000000000000000000000000000000000008152600401610ae190612e13565b60405180910390fd5b600360008373ffffffffffffffffffffffffffffffffffffffff1673ffffffffffffffffffffffffffffffffffffffff168152602001908152602001600020549050919050565b610b3961174b565b610b4360006117c9565b565b60606000600a60008473ffffffffffffffffffffffffffffffffffffffff1673ffffffffffffffffffffffffffffffffffffffff168152602001908152602001600020805480602002602001604051908101604052809291908181526020018280548015610bd257602002820191906000526020600020905b815481526020019060010190808311610bbe575b5050505050905080915050919050565b6000600760009054906101000a900473ffffffffffffffffffffffffffffffffffffffff16905090565b606060018054610c1b906130c7565b80601f0160208091040260200160405190810160405280929190818152602001828054610c47906130c7565b8015610c945780601f10610c6957610100808354040283529160200191610c94565b820191906000526020600020905b815481529060010190602001808311610c7757829003601f168201915b5050505050905090565b610cb0610ca9611213565b838361188f565b5050565b610cc5610cbf611213565b836112d4565b610d04576040517f08c379a0000000000000000000000000000000000000000000000000000000008152600401610cfb90612d13565b60405180910390fd5b610d10848484846119fc565b50505050565b600080600960008473ffffffffffffffffffffffffffffffffffffffff1673ffffffffffffffffffffffffffffffffffffffff168152602001908152602001600020805480602002602001604051908101604052809291908181526020018280548015610dd857602002820191906000526020600020905b8160009054906101000a900473ffffffffffffffffffffffffffffffffffffffff1673ffffffffffffffffffffffffffffffffffffffff1681526020019060010190808311610d8e575b5050505050905060005b8151811015610e7d573373ffffffffffffffffffffffffffffffffffffffff16828281518110610e3b577f4e487b7100000000000000000000000000000000000000000000000000000000600052603260045260246000fd5b602002602001015173ffffffffffffffffffffffffffffffffffffffff161415610e6a57600192505050610e84565b8080610e759061312a565b915050610de2565b5060009150505b919050565b6060610e9482611a58565b610ed3576040517f08c379a0000000000000000000000000000000000000000000000000000000008152600401610eca90612df3565b60405180910390fd5b610edc82611a99565b9050919050565b600080610eef33610a79565b119050919050565b6000600560008473ffffffffffffffffffffffffffffffffffffffff1673ffffffffffffffffffffffffffffffffffffffff16815260200190815260200160002060008373ffffffffffffffffffffffffffffffffffffffff1673ffffffffffffffffffffffffffffffffffffffff16815260200190815260200160002060009054906101000a900460ff16905092915050565b6000610f976008611bac565b6000610fa36008611bc2565b9050610faf8482611bd0565b610fb98184611663565b600a60003373ffffffffffffffffffffffffffffffffffffffff1673ffffffffffffffffffffffffffffffffffffffff1681526020019081526020016000208190806001815401808255809150506001900390600052602060002001600090919091909150557f1c05098ed1ff38e6238d2b1b04b2c7977d4c94ce651bda6473f9dba8dbf01da03382604051611050929190612c8b565b60405180910390a18091505092915050565b61106a61174b565b600073ffffffffffffffffffffffffffffffffffffffff168173ffffffffffffffffffffffffffffffffffffffff1614156110da576040517f08c379a00000000000000000000000000000000000000000000000000000000081526004016110d190612d53565b60405180910390fd5b6110e3816117c9565b50565b60007f80ac58cd000000000000000000000000000000000000000000000000000000007bffffffffffffffffffffffffffffffffffffffffffffffffffffffff1916827bffffffffffffffffffffffffffffffffffffffffffffffffffffffff191614806111b157507f5b5e139f000000000000000000000000000000000000000000000000000000007bffffffffffffffffffffffffffffffffffffffffffffffffffffffff1916827bffffffffffffffffffffffffffffffffffffffffffffffffffffffff1916145b806111c157506111c082611dee565b5b9050919050565b6111d181611a58565b611210576040517f08c379a000000000000000000000000000000000000000000000000000000000815260040161120790612e93565b60405180910390fd5b50565b600033905090565b816004600083815260200190815260200160002060006101000a81548173ffffffffffffffffffffffffffffffffffffffff021916908373ffffffffffffffffffffffffffffffffffffffff160217905550808273ffffffffffffffffffffffffffffffffffffffff1661128e836109f2565b73ffffffffffffffffffffffffffffffffffffffff167f8c5be1e5ebec7d5bd14f71427d1e84f3dd0314c0f7b2291e5b200ac8c7c3b92560405160405180910390a45050565b6000806112e0836109f2565b90508073ffffffffffffffffffffffffffffffffffffffff168473ffffffffffffffffffffffffffffffffffffffff16148061132257506113218185610ef7565b5b8061136057508373ffffffffffffffffffffffffffffffffffffffff1661134884610585565b73ffffffffffffffffffffffffffffffffffffffff16145b91505092915050565b8273ffffffffffffffffffffffffffffffffffffffff16611389826109f2565b73ffffffffffffffffffffffffffffffffffffffff16146113df576040517f08c379a00000000000000000000000000000000000000000000000000000000081526004016113d690612d73565b60405180910390fd5b600073ffffffffffffffffffffffffffffffffffffffff168273ffffffffffffffffffffffffffffffffffffffff16141561144f576040517f08c379a000000000000000000000000000000000000000000000000000000000815260040161144690612db3565b60405180910390fd5b61145c8383836001611e58565b8273ffffffffffffffffffffffffffffffffffffffff1661147c826109f2565b73ffffffffffffffffffffffffffffffffffffffff16146114d2576040517f08c379a00000000000000000000000000000000000000000000000000000000081526004016114c990612d73565b60405180910390fd5b6004600082815260200190815260200160002060006101000a81549073ffffffffffffffffffffffffffffffffffffffff02191690556001600360008573ffffffffffffffffffffffffffffffffffffffff1673ffffffffffffffffffffffffffffffffffffffff168152602001908152602001600020600082825403925050819055506001600360008473ffffffffffffffffffffffffffffffffffffffff1673ffffffffffffffffffffffffffffffffffffffff16815260200190815260200160002060008282540192505081905550816002600083815260200190815260200160002060006101000a81548173ffffffffffffffffffffffffffffffffffffffff021916908373ffffffffffffffffffffffffffffffffffffffff160217905550808273ffffffffffffffffffffffffffffffffffffffff168473ffffffffffffffffffffffffffffffffffffffff167fddf252ad1be2c89b69c2b068fc378daa952ba7f163c4a11628f55a4df523b3ef60405160405180910390a461165e8383836001611e5e565b505050565b61166c82611a58565b6116ab576040517f08c379a00000000000000000000000000000000000000000000000000000000081526004016116a290612e33565b60405180910390fd5b806006600084815260200190815260200160002090805190602001906116d29291906123f8565b507ff8e1a15aba9398e019f0b49df1a4fde98ee17ae345cb5f6b5e2c27f5033e8ce7826040516117029190612ef3565b60405180910390a15050565b60006002600083815260200190815260200160002060009054906101000a900473ffffffffffffffffffffffffffffffffffffffff169050919050565b611753611213565b73ffffffffffffffffffffffffffffffffffffffff16611771610be2565b73ffffffffffffffffffffffffffffffffffffffff16146117c7576040517f08c379a00000000000000000000000000000000000000000000000000000000081526004016117be90612e73565b60405180910390fd5b565b6000600760009054906101000a900473ffffffffffffffffffffffffffffffffffffffff16905081600760006101000a81548173ffffffffffffffffffffffffffffffffffffffff021916908373ffffffffffffffffffffffffffffffffffffffff1602179055508173ffffffffffffffffffffffffffffffffffffffff168173ffffffffffffffffffffffffffffffffffffffff167f8be0079c531659141344cd1fd0a4f28419497f9722a3daafe3b4186f6b6457e060405160405180910390a35050565b8173ffffffffffffffffffffffffffffffffffffffff168373ffffffffffffffffffffffffffffffffffffffff1614156118fe576040517f08c379a00000000000000000000000000000000000000000000000000000000081526004016118f590612dd3565b60405180910390fd5b80600560008573ffffffffffffffffffffffffffffffffffffffff1673ffffffffffffffffffffffffffffffffffffffff16815260200190815260200160002060008473ffffffffffffffffffffffffffffffffffffffff1673ffffffffffffffffffffffffffffffffffffffff16815260200190815260200160002060006101000a81548160ff0219169083151502179055508173ffffffffffffffffffffffffffffffffffffffff168373ffffffffffffffffffffffffffffffffffffffff167f17307eab39ab6107e8899845ad3d59bd9653f200f220920489ca2b5937696c31836040516119ef9190612cd6565b60405180910390a3505050565b611a07848484611369565b611a1384848484611e64565b611a52576040517f08c379a0000000000000000000000000000000000000000000000000000000008152600401611a4990612d33565b60405180910390fd5b50505050565b60008073ffffffffffffffffffffffffffffffffffffffff16611a7a8361170e565b73ffffffffffffffffffffffffffffffffffffffff1614159050919050565b6060611aa4826111c8565b6000600660008481526020019081526020016000208054611ac4906130c7565b80601f0160208091040260200160405190810160405280929190818152602001828054611af0906130c7565b8015611b3d5780601f10611b1257610100808354040283529160200191611b3d565b820191906000526020600020905b815481529060010190602001808311611b2057829003601f168201915b505050505090506000611b4e611ffb565b9050600081511415611b64578192505050611ba7565b600082511115611b99578082604051602001611b81929190612c00565b60405160208183030381529060405292505050611ba7565b611ba284612012565b925050505b919050565b6001816000016000828254019250508190555050565b600081600001549050919050565b600073ffffffffffffffffffffffffffffffffffffffff168273ffffffffffffffffffffffffffffffffffffffff161415611c40576040517f08c379a0000000000000000000000000000000000000000000000000000000008152600401611c3790612e53565b60405180910390fd5b611c4981611a58565b15611c89576040517f08c379a0000000000000000000000000000000000000000000000000000000008152600401611c8090612d93565b60405180910390fd5b611c97600083836001611e58565b611ca081611a58565b15611ce0576040517f08c379a0000000000000000000000000000000000000000000000000000000008152600401611cd790612d93565b60405180910390fd5b6001600360008473ffffffffffffffffffffffffffffffffffffffff1673ffffffffffffffffffffffffffffffffffffffff16815260200190815260200160002060008282540192505081905550816002600083815260200190815260200160002060006101000a81548173ffffffffffffffffffffffffffffffffffffffff021916908373ffffffffffffffffffffffffffffffffffffffff160217905550808273ffffffffffffffffffffffffffffffffffffffff16600073ffffffffffffffffffffffffffffffffffffffff167fddf252ad1be2c89b69c2b068fc378daa952ba7f163c4a11628f55a4df523b3ef60405160405180910390a4611dea600083836001611e5e565b5050565b60007f01ffc9a7000000000000000000000000000000000000000000000000000000007bffffffffffffffffffffffffffffffffffffffffffffffffffffffff1916827bffffffffffffffffffffffffffffffffffffffffffffffffffffffff1916149050919050565b50505050565b50505050565b6000611e858473ffffffffffffffffffffffffffffffffffffffff1661207a565b15611fee578373ffffffffffffffffffffffffffffffffffffffff1663150b7a02611eae611213565b8786866040518563ffffffff1660e01b8152600401611ed09493929190612c3f565b602060405180830381600087803b158015611eea57600080fd5b505af1925050508015611f1b57506040513d601f19601f82011682018060405250810190611f1891906127f8565b60015b611f9e573d8060008114611f4b576040519150601f19603f3d011682016040523d82523d6000602084013e611f50565b606091505b50600081511415611f96576040517f08c379a0000000000000000000000000000000000000000000000000000000008152600401611f8d90612d33565b60405180910390fd5b805181602001fd5b63150b7a0260e01b7bffffffffffffffffffffffffffffffffffffffffffffffffffffffff1916817bffffffffffffffffffffffffffffffffffffffffffffffffffffffff191614915050611ff3565b600190505b949350505050565b606060405180602001604052806000815250905090565b606061201d826111c8565b6000612027611ffb565b905060008151116120475760405180602001604052806000815250612072565b806120518461209d565b604051602001612062929190612c00565b6040516020818303038152906040525b915050919050565b6000808273ffffffffffffffffffffffffffffffffffffffff163b119050919050565b6060600060016120ac846121c1565b01905060008167ffffffffffffffff8111156120f1577f4e487b7100000000000000000000000000000000000000000000000000000000600052604160045260246000fd5b6040519080825280601f01601f1916602001820160405280156121235781602001600182028036833780820191505090505b509050600082602001820190505b6001156121b6578080600190039150507f3031323334353637383961626364656600000000000000000000000000000000600a86061a8153600a85816121a0577f4e487b7100000000000000000000000000000000000000000000000000000000600052601260045260246000fd5b04945060008514156121b1576121b6565b612131565b819350505050919050565b600080600090507a184f03e93ff9f4daa797ed6e38ed64bf6a1f0100000000000000008310612245577a184f03e93ff9f4daa797ed6e38ed64bf6a1f010000000000000000838161223b577f4e487b7100000000000000000000000000000000000000000000000000000000600052601260045260246000fd5b0492506040810190505b6d04ee2d6d415b85acef810000000083106122a8576d04ee2d6d415b85acef8100000000838161229e577f4e487b7100000000000000000000000000000000000000000000000000000000600052601260045260246000fd5b0492506020810190505b662386f26fc1000083106122fd57662386f26fc1000083816122f3577f4e487b7100000000000000000000000000000000000000000000000000000000600052601260045260246000fd5b0492506010810190505b6305f5e100831061234c576305f5e1008381612342577f4e487b7100000000000000000000000000000000000000000000000000000000600052601260045260246000fd5b0492506008810190505b612710831061239757612710838161238d577f4e487b7100000000000000000000000000000000000000000000000000000000600052601260045260246000fd5b0492506004810190505b606483106123e057606483816123d6577f4e487b7100000000000000000000000000000000000000000000000000000000600052601260045260246000fd5b0492506002810190505b600a83106123ef576001810190505b80915050919050565b828054612404906130c7565b90600052602060002090601f016020900481019282612426576000855561246d565b82601f1061243f57805160ff191683800117855561246d565b8280016001018555821561246d579182015b8281111561246c578251825591602001919060010190612451565b5b50905061247a919061247e565b5090565b5b8082111561249757600081600090555060010161247f565b5090565b60006124ae6124a984612f33565b612f0e565b9050828152602081018484840111156124c657600080fd5b6124d1848285613085565b509392505050565b60006124ec6124e784612f64565b612f0e565b90508281526020810184848401111561250457600080fd5b61250f848285613085565b509392505050565b600081359050612526816135ce565b92915050565b60008135905061253b816135e5565b92915050565b600081359050612550816135fc565b92915050565b600081519050612565816135fc565b92915050565b600082601f83011261257c57600080fd5b813561258c84826020860161249b565b91505092915050565b600082601f8301126125a657600080fd5b81356125b68482602086016124d9565b91505092915050565b6000813590506125ce81613613565b92915050565b6000602082840312156125e657600080fd5b60006125f484828501612517565b91505092915050565b6000806040838503121561261057600080fd5b600061261e85828601612517565b925050602061262f85828601612517565b9150509250929050565b60008060006060848603121561264e57600080fd5b600061265c86828701612517565b935050602061266d86828701612517565b925050604061267e868287016125bf565b9150509250925092565b6000806000806080858703121561269e57600080fd5b60006126ac87828801612517565b94505060206126bd87828801612517565b93505060406126ce878288016125bf565b925050606085013567ffffffffffffffff8111156126eb57600080fd5b6126f78782880161256b565b91505092959194509250565b6000806040838503121561271657600080fd5b600061272485828601612517565b92505060206127358582860161252c565b9150509250929050565b6000806040838503121561275257600080fd5b600061276085828601612517565b925050602083013567ffffffffffffffff81111561277d57600080fd5b61278985828601612595565b9150509250929050565b600080604083850312156127a657600080fd5b60006127b485828601612517565b92505060206127c5858286016125bf565b9150509250929050565b6000602082840312156127e157600080fd5b60006127ef84828501612541565b91505092915050565b60006020828403121561280a57600080fd5b600061281884828501612556565b91505092915050565b60006020828403121561283357600080fd5b6000612841848285016125bf565b91505092915050565b6000806040838503121561285d57600080fd5b600061286b858286016125bf565b925050602083013567ffffffffffffffff81111561288857600080fd5b61289485828601612595565b9150509250929050565b60006128aa8383612be2565b60208301905092915050565b6128bf81613011565b82525050565b60006128d082612fa5565b6128da8185612fd3565b93506128e583612f95565b8060005b838110156129165781516128fd888261289e565b975061290883612fc6565b9250506001810190506128e9565b5085935050505092915050565b61292c81613023565b82525050565b600061293d82612fb0565b6129478185612fe4565b9350612957818560208601613094565b61296081613200565b840191505092915050565b600061297682612fbb565b6129808185612ff5565b9350612990818560208601613094565b61299981613200565b840191505092915050565b60006129af82612fbb565b6129b98185613006565b93506129c9818560208601613094565b80840191505092915050565b60006129e2602d83612ff5565b91506129ed82613211565b604082019050919050565b6000612a05603283612ff5565b9150612a1082613260565b604082019050919050565b6000612a28602683612ff5565b9150612a33826132af565b604082019050919050565b6000612a4b602583612ff5565b9150612a56826132fe565b604082019050919050565b6000612a6e601c83612ff5565b9150612a798261334d565b602082019050919050565b6000612a91602483612ff5565b9150612a9c82613376565b604082019050919050565b6000612ab4601983612ff5565b9150612abf826133c5565b602082019050919050565b6000612ad7601783612ff5565b9150612ae2826133ee565b602082019050919050565b6000612afa602983612ff5565b9150612b0582613417565b604082019050919050565b6000612b1d602e83612ff5565b9150612b2882613466565b604082019050919050565b6000612b40602083612ff5565b9150612b4b826134b5565b602082019050919050565b6000612b63602083612ff5565b9150612b6e826134de565b602082019050919050565b6000612b86601883612ff5565b9150612b9182613507565b602082019050919050565b6000612ba9602183612ff5565b9150612bb482613530565b604082019050919050565b6000612bcc603d83612ff5565b9150612bd78261357f565b604082019050919050565b612beb8161307b565b82525050565b612bfa8161307b565b82525050565b6000612c0c82856129a4565b9150612c1882846129a4565b91508190509392505050565b6000602082019050612c3960008301846128b6565b92915050565b6000608082019050612c5460008301876128b6565b612c6160208301866128b6565b612c6e6040830185612bf1565b8181036060830152612c808184612932565b905095945050505050565b6000604082019050612ca060008301856128b6565b612cad6020830184612bf1565b9392505050565b60006020820190508181036000830152612cce81846128c5565b905092915050565b6000602082019050612ceb6000830184612923565b92915050565b60006020820190508181036000830152612d0b818461296b565b905092915050565b60006020820190508181036000830152612d2c816129d5565b9050919050565b60006020820190508181036000830152612d4c816129f8565b9050919050565b60006020820190508181036000830152612d6c81612a1b565b9050919050565b60006020820190508181036000830152612d8c81612a3e565b9050919050565b60006020820190508181036000830152612dac81612a61565b9050919050565b60006020820190508181036000830152612dcc81612a84565b9050919050565b60006020820190508181036000830152612dec81612aa7565b9050919050565b60006020820190508181036000830152612e0c81612aca565b9050919050565b60006020820190508181036000830152612e2c81612aed565b9050919050565b60006020820190508181036000830152612e4c81612b10565b9050919050565b60006020820190508181036000830152612e6c81612b33565b9050919050565b60006020820190508181036000830152612e8c81612b56565b9050919050565b60006020820190508181036000830152612eac81612b79565b9050919050565b60006020820190508181036000830152612ecc81612b9c565b9050919050565b60006020820190508181036000830152612eec81612bbf565b9050919050565b6000602082019050612f086000830184612bf1565b92915050565b6000612f18612f29565b9050612f2482826130f9565b919050565b6000604051905090565b600067ffffffffffffffff821115612f4e57612f4d6131d1565b5b612f5782613200565b9050602081019050919050565b600067ffffffffffffffff821115612f7f57612f7e6131d1565b5b612f8882613200565b9050602081019050919050565b6000819050602082019050919050565b600081519050919050565b600081519050919050565b600081519050919050565b6000602082019050919050565b600082825260208201905092915050565b600082825260208201905092915050565b600082825260208201905092915050565b600081905092915050565b600061301c8261305b565b9050919050565b60008115159050919050565b60007fffffffff0000000000000000000000000000000000000000000000000000000082169050919050565b600073ffffffffffffffffffffffffffffffffffffffff82169050919050565b6000819050919050565b82818337600083830152505050565b60005b838110156130b2578082015181840152602081019050613097565b838111156130c1576000848401525b50505050565b600060028204905060018216806130df57607f821691505b602082108114156130f3576130f26131a2565b5b50919050565b61310282613200565b810181811067ffffffffffffffff82111715613121576131206131d1565b5b80604052505050565b60006131358261307b565b91507fffffffffffffffffffffffffffffffffffffffffffffffffffffffffffffffff82141561316857613167613173565b5b600182019050919050565b7f4e487b7100000000000000000000000000000000000000000000000000000000600052601160045260246000fd5b7f4e487b7100000000000000000000000000000000000000000000000000000000600052602260045260246000fd5b7f4e487b7100000000000000000000000000000000000000000000000000000000600052604160045260246000fd5b6000601f19601f8301169050919050565b7f4552433732313a2063616c6c6572206973206e6f7420746f6b656e206f776e6560008201527f72206f7220617070726f76656400000000000000000000000000000000000000602082015250565b7f4552433732313a207472616e7366657220746f206e6f6e20455243373231526560008201527f63656976657220696d706c656d656e7465720000000000000000000000000000602082015250565b7f4f776e61626c653a206e6577206f776e657220697320746865207a65726f206160008201527f6464726573730000000000000000000000000000000000000000000000000000602082015250565b7f4552433732313a207472616e736665722066726f6d20696e636f72726563742060008201527f6f776e6572000000000000000000000000000000000000000000000000000000602082015250565b7f4552433732313a20746f6b656e20616c7265616479206d696e74656400000000600082015250565b7f4552433732313a207472616e7366657220746f20746865207a65726f2061646460008201527f7265737300000000000000000000000000000000000000000000000000000000602082015250565b7f4552433732313a20617070726f766520746f2063616c6c657200000000000000600082015250565b7f546f6b656e20494420646f6573206e6f74206578697374000000000000000000600082015250565b7f4552433732313a2061646472657373207a65726f206973206e6f74206120766160008201527f6c6964206f776e65720000000000000000000000000000000000000000000000602082015250565b7f45524337323155524953746f726167653a2055524920736574206f66206e6f6e60008201527f6578697374656e7420746f6b656e000000000000000000000000000000000000602082015250565b7f4552433732313a206d696e7420746f20746865207a65726f2061646472657373600082015250565b7f4f776e61626c653a2063616c6c6572206973206e6f7420746865206f776e6572600082015250565b7f4552433732313a20696e76616c696420746f6b656e2049440000000000000000600082015250565b7f4552433732313a20617070726f76616c20746f2063757272656e74206f776e6560008201527f7200000000000000000000000000000000000000000000000000000000000000602082015250565b7f4552433732313a20617070726f76652063616c6c6572206973206e6f7420746f60008201527f6b656e206f776e6572206f7220617070726f76656420666f7220616c6c000000602082015250565b6135d781613011565b81146135e257600080fd5b50565b6135ee81613023565b81146135f957600080fd5b50565b6136058161302f565b811461361057600080fd5b50565b61361c8161307b565b811461362757600080fd5b5056fea2646970667358221220f8ea98107777b5398f5668a9ef1e99c338b8911c132a4efaa6ad10983b1c980064736f6c63430008010033",
  "linkReferences": {},
  "deployedLinkReferences": {}
}