{
  "_format": "hh-sol-artifact-1",
  "contractName": "NFT",
  "sourceName": "contracts/NFT.sol",
  "abi": [
    {
      "inputs": [],
      "stateMutability": "nonpayable",
      "type": "constructor"
    },
    {
      "anonymous": false,
      "inputs": [
        {
          "indexed": true,
          "internalType": "address",
          "name": "owner",
          "type": "address"
        },
        {
          "indexed": true,
          "internalType": "address",
          "name": "approved",
          "type": "address"
        },
        {
          "indexed": true,
          "internalType": "uint256",
          "name": "tokenId",
          "type": "uint256"
        }
      ],
      "name": "Approval",
      "type": "event"
    },
    {
      "anonymous": false,
      "inputs": [
        {
          "indexed": true,
          "internalType": "address",
          "name": "owner",
          "type": "address"
        },
        {
          "indexed": true,
          "internalType": "address",
          "name": "operator",
          "type": "address"
        },
        {
          "indexed": false,
          "internalType": "bool",
          "name": "approved",
          "type": "bool"
        }
      ],
      "name": "ApprovalForAll",
      "type": "event"
    },
    {
      "anonymous": false,
      "inputs": [
        {
          "indexed": false,
          "internalType": "uint256",
          "name": "_fromTokenId",
          "type": "uint256"
        },
        {
          "indexed": false,
          "internalType": "uint256",
          "name": "_toTokenId",
          "type": "uint256"
        }
      ],
      "name": "BatchMetadataUpdate",
      "type": "event"
    },
    {
      "anonymous": false,
      "inputs": [
        {
          "indexed": false,
          "internalType": "uint256",
          "name": "_tokenId",
          "type": "uint256"
        }
      ],
      "name": "MetadataUpdate",
      "type": "event"
    },
    {
      "anonymous": false,
      "inputs": [
        {
          "indexed": false,
          "internalType": "address",
          "name": "sender",
          "type": "address"
        },
        {
          "indexed": false,
          "internalType": "uint256",
          "name": "tokenId",
          "type": "uint256"
        }
      ],
      "name": "NewNFTMinted",
      "type": "event"
    },
    {
      "anonymous": false,
      "inputs": [
        {
          "indexed": true,
          "internalType": "address",
          "name": "previousOwner",
          "type": "address"
        },
        {
          "indexed": true,
          "internalType": "address",
          "name": "newOwner",
          "type": "address"
        }
      ],
      "name": "OwnershipTransferred",
      "type": "event"
    },
    {
      "anonymous": false,
      "inputs": [
        {
          "indexed": true,
          "internalType": "address",
          "name": "from",
          "type": "address"
        },
        {
          "indexed": true,
          "internalType": "address",
          "name": "to",
          "type": "address"
        },
        {
          "indexed": true,
          "internalType": "uint256",
          "name": "tokenId",
          "type": "uint256"
        }
      ],
      "name": "Transfer",
      "type": "event"
    },
    {
      "inputs": [
        {
          "internalType": "address",
          "name": "accessor",
          "type": "address"
        }
      ],
      "name": "addAccessors",
      "outputs": [],
      "stateMutability": "nonpayable",
      "type": "function"
    },
    {
      "inputs": [
        {
          "internalType": "address",
          "name": "to",
          "type": "address"
        },
        {
          "internalType": "uint256",
          "name": "tokenId",
          "type": "uint256"
        }
      ],
      "name": "approve",
      "outputs": [],
      "stateMutability": "nonpayable",
      "type": "function"
    },
    {
      "inputs": [
        {
          "internalType": "address",
          "name": "owner",
          "type": "address"
        }
      ],
      "name": "balanceOf",
      "outputs": [
        {
          "internalType": "uint256",
          "name": "",
          "type": "uint256"
        }
      ],
      "stateMutability": "view",
      "type": "function"
    },
    {
      "inputs": [
        {
          "internalType": "uint256",
          "name": "tokenId",
          "type": "uint256"
        }
      ],
      "name": "getApproved",
      "outputs": [
        {
          "internalType": "address",
          "name": "",
          "type": "address"
        }
      ],
      "stateMutability": "view",
      "type": "function"
    },
    {
      "inputs": [
        {
          "internalType": "address",
          "name": "userAddress",
          "type": "address"
        }
      ],
      "name": "getTokensByUser",
      "outputs": [
        {
          "internalType": "uint256[]",
          "name": "",
          "type": "uint256[]"
        }
      ],
      "stateMutability": "view",
      "type": "function"
    },
    {
      "inputs": [
        {
          "internalType": "address",
          "name": "userAddress",
          "type": "address"
        }
      ],
      "name": "hasMintedNFT",
      "outputs": [
        {
          "internalType": "bool",
          "name": "",
          "type": "bool"
        }
      ],
      "stateMutability": "view",
      "type": "function"
    },
    {
      "inputs": [
        {
          "internalType": "address",
          "name": "owner",
          "type": "address"
        },
        {
          "internalType": "address",
          "name": "operator",
          "type": "address"
        }
      ],
      "name": "isApprovedForAll",
      "outputs": [
        {
          "internalType": "bool",
          "name": "",
          "type": "bool"
        }
      ],
      "stateMutability": "view",
      "type": "function"
    },
    {
      "inputs": [
        {
          "internalType": "address",
          "name": "recipient",
          "type": "address"
        },
        {
          "internalType": "string",
          "name": "tokenURI",
          "type": "string"
        }
      ],
      "name": "mintNFT",
      "outputs": [
        {
          "internalType": "uint256",
          "name": "",
          "type": "uint256"
        }
      ],
      "stateMutability": "nonpayable",
      "type": "function"
    },
    {
      "inputs": [],
      "name": "name",
      "outputs": [
        {
          "internalType": "string",
          "name": "",
          "type": "string"
        }
      ],
      "stateMutability": "view",
      "type": "function"
    },
    {
      "inputs": [],
      "name": "owner",
      "outputs": [
        {
          "internalType": "address",
          "name": "",
          "type": "address"
        }
      ],
      "stateMutability": "view",
      "type": "function"
    },
    {
      "inputs": [
        {
          "internalType": "uint256",
          "name": "tokenId",
          "type": "uint256"
        }
      ],
      "name": "ownerOf",
      "outputs": [
        {
          "internalType": "address",
          "name": "",
          "type": "address"
        }
      ],
      "stateMutability": "view",
      "type": "function"
    },
    {
      "inputs": [
        {
          "internalType": "address",
          "name": "accessor",
          "type": "address"
        }
      ],
      "name": "removeAccessor",
      "outputs": [],
      "stateMutability": "nonpayable",
      "type": "function"
    },
    {
      "inputs": [],
      "name": "renounceOwnership",
      "outputs": [],
      "stateMutability": "nonpayable",
      "type": "function"
    },
    {
      "inputs": [
        {
          "internalType": "address",
          "name": "from",
          "type": "address"
        },
        {
          "internalType": "address",
          "name": "to",
          "type": "address"
        },
        {
          "internalType": "uint256",
          "name": "tokenId",
          "type": "uint256"
        }
      ],
      "name": "safeTransferFrom",
      "outputs": [],
      "stateMutability": "nonpayable",
      "type": "function"
    },
    {
      "inputs": [
        {
          "internalType": "address",
          "name": "from",
          "type": "address"
        },
        {
          "internalType": "address",
          "name": "to",
          "type": "address"
        },
        {
          "internalType": "uint256",
          "name": "tokenId",
          "type": "uint256"
        },
        {
          "internalType": "bytes",
          "name": "data",
          "type": "bytes"
        }
      ],
      "name": "safeTransferFrom",
      "outputs": [],
      "stateMutability": "nonpayable",
      "type": "function"
    },
    {
      "inputs": [
        {
          "internalType": "address",
          "name": "operator",
          "type": "address"
        },
        {
          "internalType": "bool",
          "name": "approved",
          "type": "bool"
        }
      ],
      "name": "setApprovalForAll",
      "outputs": [],
      "stateMutability": "nonpayable",
      "type": "function"
    },
    {
      "inputs": [
        {
          "internalType": "bytes4",
          "name": "interfaceId",
          "type": "bytes4"
        }
      ],
      "name": "supportsInterface",
      "outputs": [
        {
          "internalType": "bool",
          "name": "",
          "type": "bool"
        }
      ],
      "stateMutability": "view",
      "type": "function"
    },
    {
      "inputs": [],
      "name": "symbol",
      "outputs": [
        {
          "internalType": "string",
          "name": "",
          "type": "string"
        }
      ],
      "stateMutability": "view",
      "type": "function"
    },
    {
      "inputs": [
        {
          "internalType": "uint256",
          "name": "_tokenId",
          "type": "uint256"
        }
      ],
      "name": "tokenURI",
      "outputs": [
        {
          "internalType": "string",
          "name": "",
          "type": "string"
        }
      ],
      "stateMutability": "view",
      "type": "function"
    },
    {
      "inputs": [
        {
          "internalType": "address",
          "name": "from",
          "type": "address"
        },
        {
          "internalType": "address",
          "name": "to",
          "type": "address"
        },
        {
          "internalType": "uint256",
          "name": "tokenId",
          "type": "uint256"
        }
      ],
      "name": "transferFrom",
      "outputs": [],
      "stateMutability": "nonpayable",
      "type": "function"
    },
    {
      "inputs": [
        {
          "internalType": "address",
          "name": "newOwner",
          "type": "address"
        }
      ],
      "name": "transferOwnership",
      "outputs": [],
      "stateMutability": "nonpayable",
      "type": "function"
    },
    {
      "inputs": [
        {
          "internalType": "uint256",
          "name": "_tokenId",
          "type": "uint256"
        },
        {
          "internalType": "string",
          "name": "_newUri",
          "type": "string"
        }
      ],
      "name": "updateMetadata",
      "outputs": [],
      "stateMutability": "nonpayable",
      "type": "function"
    }
  ],
  "bytecode": "0x60806040523480156200001157600080fd5b506040518060400160405280600581526020017f4d794e46540000000000000000000000000000000000000000000000000000008152506040518060400160405280600381526020017f4e46540000000000000000000000000000000000000000000000000000000000815250816000908051906020019062000096929190620001a6565b508060019080519060200190620000af929190620001a6565b505050620000d2620000c6620000d860201b60201c565b620000e060201b60201c565b620002bb565b600033905090565b6000600760009054906101000a900473ffffffffffffffffffffffffffffffffffffffff16905081600760006101000a81548173ffffffffffffffffffffffffffffffffffffffff021916908373ffffffffffffffffffffffffffffffffffffffff1602179055508173ffffffffffffffffffffffffffffffffffffffff168173ffffffffffffffffffffffffffffffffffffffff167f8be0079c531659141344cd1fd0a4f28419497f9722a3daafe3b4186f6b6457e060405160405180910390a35050565b828054620001b49062000256565b90600052602060002090601f016020900481019282620001d8576000855562000224565b82601f10620001f357805160ff191683800117855562000224565b8280016001018555821562000224579182015b828111156200022357825182559160200191906001019062000206565b5b50905062000233919062000237565b5090565b5b808211156200025257600081600090555060010162000238565b5090565b600060028204905060018216806200026f57607f821691505b602082108114156200028657620002856200028c565b5b50919050565b7f4e487b7100000000000000000000000000000000000000000000000000000000600052602260045260246000fd5b6139ff80620002cb6000396000f3fe608060405234801561001057600080fd5b50600436106101425760003560e01c8063715018a6116100b8578063b88d4fde1161007c578063b88d4fde1461035f578063c87b56dd1461037b578063e28cb25a146103ab578063e985e9c5146103db578063eacabe141461040b578063f2fde38b1461043b57610142565b8063715018a6146102cd57806380370075146102d75780638da5cb5b1461030757806395d89b4114610325578063a22cb4651461034357610142565b806323b872dd1161010a57806323b872dd146101fd5780632ec9ad441461021957806342842e0e1461023557806353c8388e146102515780636352211e1461026d57806370a082311461029d57610142565b806301ffc9a71461014757806306fdde0314610177578063081812fc14610195578063095ea7b3146101c55780632333224a146101e1575b600080fd5b610161600480360381019061015c9190612ab3565b610457565b60405161016e9190612fdd565b60405180910390f35b61017f6104b8565b60405161018c9190612ff8565b60405180910390f35b6101af60048036038101906101aa9190612b05565b61054a565b6040516101bc9190612f2b565b60405180910390f35b6101df60048036038101906101da9190612a77565b610590565b005b6101fb60048036038101906101f691906128b8565b6106a8565b005b6102176004803603810190610212919061291d565b61074b565b005b610233600480360381019061022e91906128b8565b6107ab565b005b61024f600480360381019061024a919061291d565b610989565b005b61026b60048036038101906102669190612b2e565b6109a9565b005b61028760048036038101906102829190612b05565b6109b7565b6040516102949190612f2b565b60405180910390f35b6102b760048036038101906102b291906128b8565b610a3e565b6040516102c4919061321a565b60405180910390f35b6102d5610af6565b005b6102f160048036038101906102ec91906128b8565b610b0a565b6040516102fe9190612fbb565b60405180910390f35b61030f610daa565b60405161031c9190612f2b565b60405180910390f35b61032d610dd4565b60405161033a9190612ff8565b60405180910390f35b61035d600480360381019061035891906129e7565b610e66565b005b6103796004803603810190610374919061296c565b610e7c565b005b61039560048036038101906103909190612b05565b610ede565b6040516103a29190612ff8565b60405180910390f35b6103c560048036038101906103c091906128b8565b610f38565b6040516103d29190612fdd565b60405180910390f35b6103f560048036038101906103f091906128e1565b610f4c565b6040516104029190612fdd565b60405180910390f35b61042560048036038101906104209190612a23565b610fe0565b604051610432919061321a565b60405180910390f35b610455600480360381019061045091906128b8565b611157565b005b6000634906490660e01b7bffffffffffffffffffffffffffffffffffffffffffffffffffffffff1916827bffffffffffffffffffffffffffffffffffffffffffffffffffffffff191614806104b157506104b0826111db565b5b9050919050565b6060600080546104c790613417565b80601f01602080910402602001604051908101604052809291908181526020018280546104f390613417565b80156105405780601f1061051557610100808354040283529160200191610540565b820191906000526020600020905b81548152906001019060200180831161052357829003601f168201915b5050505050905090565b6000610555826112bd565b6004600083815260200190815260200160002060009054906101000a900473ffffffffffffffffffffffffffffffffffffffff169050919050565b600061059b826109b7565b90508073ffffffffffffffffffffffffffffffffffffffff168373ffffffffffffffffffffffffffffffffffffffff16141561060c576040517f08c379a0000000000000000000000000000000000000000000000000000000008152600401610603906131ba565b60405180910390fd5b8073ffffffffffffffffffffffffffffffffffffffff1661062b611308565b73ffffffffffffffffffffffffffffffffffffffff16148061065a575061065981610654611308565b610f4c565b5b610699576040517f08c379a0000000000000000000000000000000000000000000000000000000008152600401610690906131da565b60405180910390fd5b6106a38383611310565b505050565b600960003373ffffffffffffffffffffffffffffffffffffffff1673ffffffffffffffffffffffffffffffffffffffff168152602001908152602001600020819080600181540180825580915050600190039060005260206000200160009091909190916101000a81548173ffffffffffffffffffffffffffffffffffffffff021916908373ffffffffffffffffffffffffffffffffffffffff16021790555050565b61075c610756611308565b826113c9565b61079b576040517f08c379a00000000000000000000000000000000000000000000000000000000081526004016107929061301a565b60405180910390fd5b6107a683838361145e565b505050565b60005b600960003373ffffffffffffffffffffffffffffffffffffffff1673ffffffffffffffffffffffffffffffffffffffff16815260200190815260200160002080549050811015610985578173ffffffffffffffffffffffffffffffffffffffff16600960003373ffffffffffffffffffffffffffffffffffffffff1673ffffffffffffffffffffffffffffffffffffffff1681526020019081526020016000208281548110610886577f4e487b7100000000000000000000000000000000000000000000000000000000600052603260045260246000fd5b9060005260206000200160009054906101000a900473ffffffffffffffffffffffffffffffffffffffff1673ffffffffffffffffffffffffffffffffffffffff16141561097257600960003373ffffffffffffffffffffffffffffffffffffffff1673ffffffffffffffffffffffffffffffffffffffff1681526020019081526020016000208181548110610944577f4e487b7100000000000000000000000000000000000000000000000000000000600052603260045260246000fd5b9060005260206000200160006101000a81549073ffffffffffffffffffffffffffffffffffffffff02191690555b808061097d9061347a565b9150506107ae565b5050565b6109a483838360405180602001604052806000815250610e7c565b505050565b6109b38282611758565b5050565b6000806109c383611803565b9050600073ffffffffffffffffffffffffffffffffffffffff168173ffffffffffffffffffffffffffffffffffffffff161415610a35576040517f08c379a0000000000000000000000000000000000000000000000000000000008152600401610a2c9061319a565b60405180910390fd5b80915050919050565b60008073ffffffffffffffffffffffffffffffffffffffff168273ffffffffffffffffffffffffffffffffffffffff161415610aaf576040517f08c379a0000000000000000000000000000000000000000000000000000000008152600401610aa69061311a565b60405180910390fd5b600360008373ffffffffffffffffffffffffffffffffffffffff1673ffffffffffffffffffffffffffffffffffffffff168152602001908152602001600020549050919050565b610afe611840565b610b0860006118be565b565b6060816000610b1882611984565b6000600960008473ffffffffffffffffffffffffffffffffffffffff1673ffffffffffffffffffffffffffffffffffffffff168152602001908152602001600020805480602002602001604051908101604052809291908181526020018280548015610bd957602002820191906000526020600020905b8160009054906101000a900473ffffffffffffffffffffffffffffffffffffffff1673ffffffffffffffffffffffffffffffffffffffff1681526020019060010190808311610b8f575b5050505050905060005b8151811015610cc2573373ffffffffffffffffffffffffffffffffffffffff16828281518110610c3c577f4e487b7100000000000000000000000000000000000000000000000000000000600052603260045260246000fd5b602002602001015173ffffffffffffffffffffffffffffffffffffffff161415610c6557600192505b610caf81838381518110610ca2577f4e487b7100000000000000000000000000000000000000000000000000000000600052603260045260246000fd5b6020026020010151611a1d565b8080610cba9061347a565b915050610be3565b50610ccc82611ab9565b81610d0c576040517f08c379a0000000000000000000000000000000000000000000000000000000008152600401610d03906131fa565b60405180910390fd5b6000600a60008773ffffffffffffffffffffffffffffffffffffffff1673ffffffffffffffffffffffffffffffffffffffff168152602001908152602001600020805480602002602001604051908101604052809291908181526020018280548015610d9757602002820191906000526020600020905b815481526020019060010190808311610d83575b5050505050905080945050505050919050565b6000600760009054906101000a900473ffffffffffffffffffffffffffffffffffffffff16905090565b606060018054610de390613417565b80601f0160208091040260200160405190810160405280929190818152602001828054610e0f90613417565b8015610e5c5780601f10610e3157610100808354040283529160200191610e5c565b820191906000526020600020905b815481529060010190602001808311610e3f57829003601f168201915b5050505050905090565b610e78610e71611308565b8383611b52565b5050565b610e8d610e87611308565b836113c9565b610ecc576040517f08c379a0000000000000000000000000000000000000000000000000000000008152600401610ec39061301a565b60405180910390fd5b610ed884848484611cbf565b50505050565b6060610ee982611d1b565b610f28576040517f08c379a0000000000000000000000000000000000000000000000000000000008152600401610f1f906130fa565b60405180910390fd5b610f3182611d5c565b9050919050565b600080610f4433610a3e565b119050919050565b6000600560008473ffffffffffffffffffffffffffffffffffffffff1673ffffffffffffffffffffffffffffffffffffffff16815260200190815260200160002060008373ffffffffffffffffffffffffffffffffffffffff1673ffffffffffffffffffffffffffffffffffffffff16815260200190815260200160002060009054906101000a900460ff16905092915050565b6000610fec6008611e6f565b6000610ff86008611e85565b90506110048482611e93565b61100e8184611758565b600a60003373ffffffffffffffffffffffffffffffffffffffff1673ffffffffffffffffffffffffffffffffffffffff168152602001908152602001600020819080600181540180825580915050600190039060005260206000200160009091909190915055600960008573ffffffffffffffffffffffffffffffffffffffff1673ffffffffffffffffffffffffffffffffffffffff168152602001908152602001600020339080600181540180825580915050600190039060005260206000200160009091909190916101000a81548173ffffffffffffffffffffffffffffffffffffffff021916908373ffffffffffffffffffffffffffffffffffffffff1602179055507f1c05098ed1ff38e6238d2b1b04b2c7977d4c94ce651bda6473f9dba8dbf01da03382604051611145929190612f92565b60405180910390a18091505092915050565b61115f611840565b600073ffffffffffffffffffffffffffffffffffffffff168173ffffffffffffffffffffffffffffffffffffffff1614156111cf576040517f08c379a00000000000000000000000000000000000000000000000000000000081526004016111c69061305a565b60405180910390fd5b6111d8816118be565b50565b60007f80ac58cd000000000000000000000000000000000000000000000000000000007bffffffffffffffffffffffffffffffffffffffffffffffffffffffff1916827bffffffffffffffffffffffffffffffffffffffffffffffffffffffff191614806112a657507f5b5e139f000000000000000000000000000000000000000000000000000000007bffffffffffffffffffffffffffffffffffffffffffffffffffffffff1916827bffffffffffffffffffffffffffffffffffffffffffffffffffffffff1916145b806112b657506112b5826120b1565b5b9050919050565b6112c681611d1b565b611305576040517f08c379a00000000000000000000000000000000000000000000000000000000081526004016112fc9061319a565b60405180910390fd5b50565b600033905090565b816004600083815260200190815260200160002060006101000a81548173ffffffffffffffffffffffffffffffffffffffff021916908373ffffffffffffffffffffffffffffffffffffffff160217905550808273ffffffffffffffffffffffffffffffffffffffff16611383836109b7565b73ffffffffffffffffffffffffffffffffffffffff167f8c5be1e5ebec7d5bd14f71427d1e84f3dd0314c0f7b2291e5b200ac8c7c3b92560405160405180910390a45050565b6000806113d5836109b7565b90508073ffffffffffffffffffffffffffffffffffffffff168473ffffffffffffffffffffffffffffffffffffffff16148061141757506114168185610f4c565b5b8061145557508373ffffffffffffffffffffffffffffffffffffffff1661143d8461054a565b73ffffffffffffffffffffffffffffffffffffffff16145b91505092915050565b8273ffffffffffffffffffffffffffffffffffffffff1661147e826109b7565b73ffffffffffffffffffffffffffffffffffffffff16146114d4576040517f08c379a00000000000000000000000000000000000000000000000000000000081526004016114cb9061307a565b60405180910390fd5b600073ffffffffffffffffffffffffffffffffffffffff168273ffffffffffffffffffffffffffffffffffffffff161415611544576040517f08c379a000000000000000000000000000000000000000000000000000000000815260040161153b906130ba565b60405180910390fd5b611551838383600161211b565b8273ffffffffffffffffffffffffffffffffffffffff16611571826109b7565b73ffffffffffffffffffffffffffffffffffffffff16146115c7576040517f08c379a00000000000000000000000000000000000000000000000000000000081526004016115be9061307a565b60405180910390fd5b6004600082815260200190815260200160002060006101000a81549073ffffffffffffffffffffffffffffffffffffffff02191690556001600360008573ffffffffffffffffffffffffffffffffffffffff1673ffffffffffffffffffffffffffffffffffffffff168152602001908152602001600020600082825403925050819055506001600360008473ffffffffffffffffffffffffffffffffffffffff1673ffffffffffffffffffffffffffffffffffffffff16815260200190815260200160002060008282540192505081905550816002600083815260200190815260200160002060006101000a81548173ffffffffffffffffffffffffffffffffffffffff021916908373ffffffffffffffffffffffffffffffffffffffff160217905550808273ffffffffffffffffffffffffffffffffffffffff168473ffffffffffffffffffffffffffffffffffffffff167fddf252ad1be2c89b69c2b068fc378daa952ba7f163c4a11628f55a4df523b3ef60405160405180910390a46117538383836001612121565b505050565b61176182611d1b565b6117a0576040517f08c379a00000000000000000000000000000000000000000000000000000000081526004016117979061313a565b60405180910390fd5b806006600084815260200190815260200160002090805190602001906117c79291906126dc565b507ff8e1a15aba9398e019f0b49df1a4fde98ee17ae345cb5f6b5e2c27f5033e8ce7826040516117f7919061321a565b60405180910390a15050565b60006002600083815260200190815260200160002060009054906101000a900473ffffffffffffffffffffffffffffffffffffffff169050919050565b611848611308565b73ffffffffffffffffffffffffffffffffffffffff16611866610daa565b73ffffffffffffffffffffffffffffffffffffffff16146118bc576040517f08c379a00000000000000000000000000000000000000000000000000000000081526004016118b39061317a565b60405180910390fd5b565b6000600760009054906101000a900473ffffffffffffffffffffffffffffffffffffffff16905081600760006101000a81548173ffffffffffffffffffffffffffffffffffffffff021916908373ffffffffffffffffffffffffffffffffffffffff1602179055508173ffffffffffffffffffffffffffffffffffffffff168173ffffffffffffffffffffffffffffffffffffffff167f8be0079c531659141344cd1fd0a4f28419497f9722a3daafe3b4186f6b6457e060405160405180910390a35050565b611a1a816040516024016119989190612f2b565b6040516020818303038152906040527f2c2ecbc2000000000000000000000000000000000000000000000000000000007bffffffffffffffffffffffffffffffffffffffffffffffffffffffff19166020820180517bffffffffffffffffffffffffffffffffffffffffffffffffffffffff8381831617835250505050612127565b50565b611ab58282604051602401611a33929190613235565b6040516020818303038152906040527f69276c86000000000000000000000000000000000000000000000000000000007bffffffffffffffffffffffffffffffffffffffffffffffffffffffff19166020820180517bffffffffffffffffffffffffffffffffffffffffffffffffffffffff8381831617835250505050612127565b5050565b611b4f81604051602401611acd9190612fdd565b6040516020818303038152906040527f32458eed000000000000000000000000000000000000000000000000000000007bffffffffffffffffffffffffffffffffffffffffffffffffffffffff19166020820180517bffffffffffffffffffffffffffffffffffffffffffffffffffffffff8381831617835250505050612127565b50565b8173ffffffffffffffffffffffffffffffffffffffff168373ffffffffffffffffffffffffffffffffffffffff161415611bc1576040517f08c379a0000000000000000000000000000000000000000000000000000000008152600401611bb8906130da565b60405180910390fd5b80600560008573ffffffffffffffffffffffffffffffffffffffff1673ffffffffffffffffffffffffffffffffffffffff16815260200190815260200160002060008473ffffffffffffffffffffffffffffffffffffffff1673ffffffffffffffffffffffffffffffffffffffff16815260200190815260200160002060006101000a81548160ff0219169083151502179055508173ffffffffffffffffffffffffffffffffffffffff168373ffffffffffffffffffffffffffffffffffffffff167f17307eab39ab6107e8899845ad3d59bd9653f200f220920489ca2b5937696c3183604051611cb29190612fdd565b60405180910390a3505050565b611cca84848461145e565b611cd684848484612148565b611d15576040517f08c379a0000000000000000000000000000000000000000000000000000000008152600401611d0c9061303a565b60405180910390fd5b50505050565b60008073ffffffffffffffffffffffffffffffffffffffff16611d3d83611803565b73ffffffffffffffffffffffffffffffffffffffff1614159050919050565b6060611d67826112bd565b6000600660008481526020019081526020016000208054611d8790613417565b80601f0160208091040260200160405190810160405280929190818152602001828054611db390613417565b8015611e005780601f10611dd557610100808354040283529160200191611e00565b820191906000526020600020905b815481529060010190602001808311611de357829003601f168201915b505050505090506000611e116122df565b9050600081511415611e27578192505050611e6a565b600082511115611e5c578082604051602001611e44929190612f07565b60405160208183030381529060405292505050611e6a565b611e65846122f6565b925050505b919050565b6001816000016000828254019250508190555050565b600081600001549050919050565b600073ffffffffffffffffffffffffffffffffffffffff168273ffffffffffffffffffffffffffffffffffffffff161415611f03576040517f08c379a0000000000000000000000000000000000000000000000000000000008152600401611efa9061315a565b60405180910390fd5b611f0c81611d1b565b15611f4c576040517f08c379a0000000000000000000000000000000000000000000000000000000008152600401611f439061309a565b60405180910390fd5b611f5a60008383600161211b565b611f6381611d1b565b15611fa3576040517f08c379a0000000000000000000000000000000000000000000000000000000008152600401611f9a9061309a565b60405180910390fd5b6001600360008473ffffffffffffffffffffffffffffffffffffffff1673ffffffffffffffffffffffffffffffffffffffff16815260200190815260200160002060008282540192505081905550816002600083815260200190815260200160002060006101000a81548173ffffffffffffffffffffffffffffffffffffffff021916908373ffffffffffffffffffffffffffffffffffffffff160217905550808273ffffffffffffffffffffffffffffffffffffffff16600073ffffffffffffffffffffffffffffffffffffffff167fddf252ad1be2c89b69c2b068fc378daa952ba7f163c4a11628f55a4df523b3ef60405160405180910390a46120ad600083836001612121565b5050565b60007f01ffc9a7000000000000000000000000000000000000000000000000000000007bffffffffffffffffffffffffffffffffffffffffffffffffffffffff1916827bffffffffffffffffffffffffffffffffffffffffffffffffffffffff1916149050919050565b50505050565b50505050565b60006a636f6e736f6c652e6c6f679050600080835160208501845afa505050565b60006121698473ffffffffffffffffffffffffffffffffffffffff1661235e565b156122d2578373ffffffffffffffffffffffffffffffffffffffff1663150b7a02612192611308565b8786866040518563ffffffff1660e01b81526004016121b49493929190612f46565b602060405180830381600087803b1580156121ce57600080fd5b505af19250505080156121ff57506040513d601f19601f820116820180604052508101906121fc9190612adc565b60015b612282573d806000811461222f576040519150601f19603f3d011682016040523d82523d6000602084013e612234565b606091505b5060008151141561227a576040517f08c379a00000000000000000000000000000000000000000000000000000000081526004016122719061303a565b60405180910390fd5b805181602001fd5b63150b7a0260e01b7bffffffffffffffffffffffffffffffffffffffffffffffffffffffff1916817bffffffffffffffffffffffffffffffffffffffffffffffffffffffff1916149150506122d7565b600190505b949350505050565b606060405180602001604052806000815250905090565b6060612301826112bd565b600061230b6122df565b9050600081511161232b5760405180602001604052806000815250612356565b8061233584612381565b604051602001612346929190612f07565b6040516020818303038152906040525b915050919050565b6000808273ffffffffffffffffffffffffffffffffffffffff163b119050919050565b606060006001612390846124a5565b01905060008167ffffffffffffffff8111156123d5577f4e487b7100000000000000000000000000000000000000000000000000000000600052604160045260246000fd5b6040519080825280601f01601f1916602001820160405280156124075781602001600182028036833780820191505090505b509050600082602001820190505b60011561249a578080600190039150507f3031323334353637383961626364656600000000000000000000000000000000600a86061a8153600a8581612484577f4e487b7100000000000000000000000000000000000000000000000000000000600052601260045260246000fd5b04945060008514156124955761249a565b612415565b819350505050919050565b600080600090507a184f03e93ff9f4daa797ed6e38ed64bf6a1f0100000000000000008310612529577a184f03e93ff9f4daa797ed6e38ed64bf6a1f010000000000000000838161251f577f4e487b7100000000000000000000000000000000000000000000000000000000600052601260045260246000fd5b0492506040810190505b6d04ee2d6d415b85acef8100000000831061258c576d04ee2d6d415b85acef81000000008381612582577f4e487b7100000000000000000000000000000000000000000000000000000000600052601260045260246000fd5b0492506020810190505b662386f26fc1000083106125e157662386f26fc1000083816125d7577f4e487b7100000000000000000000000000000000000000000000000000000000600052601260045260246000fd5b0492506010810190505b6305f5e1008310612630576305f5e1008381612626577f4e487b7100000000000000000000000000000000000000000000000000000000600052601260045260246000fd5b0492506008810190505b612710831061267b576127108381612671577f4e487b7100000000000000000000000000000000000000000000000000000000600052601260045260246000fd5b0492506004810190505b606483106126c457606483816126ba577f4e487b7100000000000000000000000000000000000000000000000000000000600052601260045260246000fd5b0492506002810190505b600a83106126d3576001810190505b80915050919050565b8280546126e890613417565b90600052602060002090601f01602090048101928261270a5760008555612751565b82601f1061272357805160ff1916838001178555612751565b82800160010185558215612751579182015b82811115612750578251825591602001919060010190612735565b5b50905061275e9190612762565b5090565b5b8082111561277b576000816000905550600101612763565b5090565b600061279261278d84613283565b61325e565b9050828152602081018484840111156127aa57600080fd5b6127b58482856133d5565b509392505050565b60006127d06127cb846132b4565b61325e565b9050828152602081018484840111156127e857600080fd5b6127f38482856133d5565b509392505050565b60008135905061280a8161396d565b92915050565b60008135905061281f81613984565b92915050565b6000813590506128348161399b565b92915050565b6000815190506128498161399b565b92915050565b600082601f83011261286057600080fd5b813561287084826020860161277f565b91505092915050565b600082601f83011261288a57600080fd5b813561289a8482602086016127bd565b91505092915050565b6000813590506128b2816139b2565b92915050565b6000602082840312156128ca57600080fd5b60006128d8848285016127fb565b91505092915050565b600080604083850312156128f457600080fd5b6000612902858286016127fb565b9250506020612913858286016127fb565b9150509250929050565b60008060006060848603121561293257600080fd5b6000612940868287016127fb565b9350506020612951868287016127fb565b9250506040612962868287016128a3565b9150509250925092565b6000806000806080858703121561298257600080fd5b6000612990878288016127fb565b94505060206129a1878288016127fb565b93505060406129b2878288016128a3565b925050606085013567ffffffffffffffff8111156129cf57600080fd5b6129db8782880161284f565b91505092959194509250565b600080604083850312156129fa57600080fd5b6000612a08858286016127fb565b9250506020612a1985828601612810565b9150509250929050565b60008060408385031215612a3657600080fd5b6000612a44858286016127fb565b925050602083013567ffffffffffffffff811115612a6157600080fd5b612a6d85828601612879565b9150509250929050565b60008060408385031215612a8a57600080fd5b6000612a98858286016127fb565b9250506020612aa9858286016128a3565b9150509250929050565b600060208284031215612ac557600080fd5b6000612ad384828501612825565b91505092915050565b600060208284031215612aee57600080fd5b6000612afc8482850161283a565b91505092915050565b600060208284031215612b1757600080fd5b6000612b25848285016128a3565b91505092915050565b60008060408385031215612b4157600080fd5b6000612b4f858286016128a3565b925050602083013567ffffffffffffffff811115612b6c57600080fd5b612b7885828601612879565b9150509250929050565b6000612b8e8383612ee9565b60208301905092915050565b612ba381613361565b82525050565b6000612bb4826132f5565b612bbe8185613323565b9350612bc9836132e5565b8060005b83811015612bfa578151612be18882612b82565b9750612bec83613316565b925050600181019050612bcd565b5085935050505092915050565b612c1081613373565b82525050565b6000612c2182613300565b612c2b8185613334565b9350612c3b8185602086016133e4565b612c4481613550565b840191505092915050565b6000612c5a8261330b565b612c648185613345565b9350612c748185602086016133e4565b612c7d81613550565b840191505092915050565b6000612c938261330b565b612c9d8185613356565b9350612cad8185602086016133e4565b80840191505092915050565b6000612cc6602d83613345565b9150612cd182613561565b604082019050919050565b6000612ce9603283613345565b9150612cf4826135b0565b604082019050919050565b6000612d0c602683613345565b9150612d17826135ff565b604082019050919050565b6000612d2f602583613345565b9150612d3a8261364e565b604082019050919050565b6000612d52601c83613345565b9150612d5d8261369d565b602082019050919050565b6000612d75602483613345565b9150612d80826136c6565b604082019050919050565b6000612d98601983613345565b9150612da382613715565b602082019050919050565b6000612dbb601783613345565b9150612dc68261373e565b602082019050919050565b6000612dde602983613345565b9150612de982613767565b604082019050919050565b6000612e01602e83613345565b9150612e0c826137b6565b604082019050919050565b6000612e24602083613345565b9150612e2f82613805565b602082019050919050565b6000612e47602083613345565b9150612e528261382e565b602082019050919050565b6000612e6a601883613345565b9150612e7582613857565b602082019050919050565b6000612e8d602183613345565b9150612e9882613880565b604082019050919050565b6000612eb0603d83613345565b9150612ebb826138cf565b604082019050919050565b6000612ed3602683613345565b9150612ede8261391e565b604082019050919050565b612ef2816133cb565b82525050565b612f01816133cb565b82525050565b6000612f138285612c88565b9150612f1f8284612c88565b91508190509392505050565b6000602082019050612f406000830184612b9a565b92915050565b6000608082019050612f5b6000830187612b9a565b612f686020830186612b9a565b612f756040830185612ef8565b8181036060830152612f878184612c16565b905095945050505050565b6000604082019050612fa76000830185612b9a565b612fb46020830184612ef8565b9392505050565b60006020820190508181036000830152612fd58184612ba9565b905092915050565b6000602082019050612ff26000830184612c07565b92915050565b600060208201905081810360008301526130128184612c4f565b905092915050565b6000602082019050818103600083015261303381612cb9565b9050919050565b6000602082019050818103600083015261305381612cdc565b9050919050565b6000602082019050818103600083015261307381612cff565b9050919050565b6000602082019050818103600083015261309381612d22565b9050919050565b600060208201905081810360008301526130b381612d45565b9050919050565b600060208201905081810360008301526130d381612d68565b9050919050565b600060208201905081810360008301526130f381612d8b565b9050919050565b6000602082019050818103600083015261311381612dae565b9050919050565b6000602082019050818103600083015261313381612dd1565b9050919050565b6000602082019050818103600083015261315381612df4565b9050919050565b6000602082019050818103600083015261317381612e17565b9050919050565b6000602082019050818103600083015261319381612e3a565b9050919050565b600060208201905081810360008301526131b381612e5d565b9050919050565b600060208201905081810360008301526131d381612e80565b9050919050565b600060208201905081810360008301526131f381612ea3565b9050919050565b6000602082019050818103600083015261321381612ec6565b9050919050565b600060208201905061322f6000830184612ef8565b92915050565b600060408201905061324a6000830185612ef8565b6132576020830184612b9a565b9392505050565b6000613268613279565b90506132748282613449565b919050565b6000604051905090565b600067ffffffffffffffff82111561329e5761329d613521565b5b6132a782613550565b9050602081019050919050565b600067ffffffffffffffff8211156132cf576132ce613521565b5b6132d882613550565b9050602081019050919050565b6000819050602082019050919050565b600081519050919050565b600081519050919050565b600081519050919050565b6000602082019050919050565b600082825260208201905092915050565b600082825260208201905092915050565b600082825260208201905092915050565b600081905092915050565b600061336c826133ab565b9050919050565b60008115159050919050565b60007fffffffff0000000000000000000000000000000000000000000000000000000082169050919050565b600073ffffffffffffffffffffffffffffffffffffffff82169050919050565b6000819050919050565b82818337600083830152505050565b60005b838110156134025780820151818401526020810190506133e7565b83811115613411576000848401525b50505050565b6000600282049050600182168061342f57607f821691505b60208210811415613443576134426134f2565b5b50919050565b61345282613550565b810181811067ffffffffffffffff8211171561347157613470613521565b5b80604052505050565b6000613485826133cb565b91507fffffffffffffffffffffffffffffffffffffffffffffffffffffffffffffffff8214156134b8576134b76134c3565b5b600182019050919050565b7f4e487b7100000000000000000000000000000000000000000000000000000000600052601160045260246000fd5b7f4e487b7100000000000000000000000000000000000000000000000000000000600052602260045260246000fd5b7f4e487b7100000000000000000000000000000000000000000000000000000000600052604160045260246000fd5b6000601f19601f8301169050919050565b7f4552433732313a2063616c6c6572206973206e6f7420746f6b656e206f776e6560008201527f72206f7220617070726f76656400000000000000000000000000000000000000602082015250565b7f4552433732313a207472616e7366657220746f206e6f6e20455243373231526560008201527f63656976657220696d706c656d656e7465720000000000000000000000000000602082015250565b7f4f776e61626c653a206e6577206f776e657220697320746865207a65726f206160008201527f6464726573730000000000000000000000000000000000000000000000000000602082015250565b7f4552433732313a207472616e736665722066726f6d20696e636f72726563742060008201527f6f776e6572000000000000000000000000000000000000000000000000000000602082015250565b7f4552433732313a20746f6b656e20616c7265616479206d696e74656400000000600082015250565b7f4552433732313a207472616e7366657220746f20746865207a65726f2061646460008201527f7265737300000000000000000000000000000000000000000000000000000000602082015250565b7f4552433732313a20617070726f766520746f2063616c6c657200000000000000600082015250565b7f546f6b656e20494420646f6573206e6f74206578697374000000000000000000600082015250565b7f4552433732313a2061646472657373207a65726f206973206e6f74206120766160008201527f6c6964206f776e65720000000000000000000000000000000000000000000000602082015250565b7f45524337323155524953746f726167653a2055524920736574206f66206e6f6e60008201527f6578697374656e7420746f6b656e000000000000000000000000000000000000602082015250565b7f4552433732313a206d696e7420746f20746865207a65726f2061646472657373600082015250565b7f4f776e61626c653a2063616c6c6572206973206e6f7420746865206f776e6572600082015250565b7f4552433732313a20696e76616c696420746f6b656e2049440000000000000000600082015250565b7f4552433732313a20617070726f76616c20746f2063757272656e74206f776e6560008201527f7200000000000000000000000000000000000000000000000000000000000000602082015250565b7f4552433732313a20617070726f76652063616c6c6572206973206e6f7420746f60008201527f6b656e206f776e6572206f7220617070726f76656420666f7220616c6c000000602082015250565b7f4e6f7420616c6c6f77656420746f20766965772074686973207573657273207260008201527f65636f7264730000000000000000000000000000000000000000000000000000602082015250565b61397681613361565b811461398157600080fd5b50565b61398d81613373565b811461399857600080fd5b50565b6139a48161337f565b81146139af57600080fd5b50565b6139bb816133cb565b81146139c657600080fd5b5056fea2646970667358221220986b45f81ccd555e12590b9cb22e5e48bb26c73344f3d8d5882994d1171fd79964736f6c63430008010033",
  "linkReferences": {},
  "deployedLinkReferences": {}
}